{
	"data": {
		"bytecode": {
			"linkReferences": {},
			"object": "600780546001600160a81b03191690556008805461ffff60a01b1916600160a81b17905560006009819055600a805460ff60a01b19169055600b819055600c819055600d819055600e81905560a0604081905260808290526200006691600f9190620001cb565b50601080546001600160a01b0319908116909155601180548216905560128054909116905560006013819055604080516020810191829052829052620000b09160149190620001cb565b5060006015819055604080516020810191829052829052620000d69160169190620001cb565b506018805460ff199081169091556000601a819055601b8054909216909155601c553480156200010557600080fd5b50604051620036fb380380620036fb8339810160408190526200012891620002fa565b82516200013d906004906020860190620001cb565b50815162000153906005906020850190620001cb565b50600880546001600160a01b0319163317905580516200017b906017906020840190620001cb565b50336001600160a01b03167f8a0ef5c7c4ebfb0507f94843dcc14ec4b1d4816caf28a48931136beec636b3b2600083604051620001ba92919062000387565b60405180910390a250505062000449565b828054620001d990620003f6565b90600052602060002090601f016020900481019282620001fd576000855562000248565b82601f106200021857805160ff191683800117855562000248565b8280016001018555821562000248579182015b82811115620002485782518255916020019190600101906200022b565b50620002569291506200025a565b5090565b5b808211156200025657600081556001016200025b565b600082601f83011262000282578081fd5b81516001600160401b03808211156200029f576200029f62000433565b604051601f8301601f191681016020018281118282101715620002c657620002c662000433565b604052828152848301602001861015620002de578384fd5b620002f1836020830160208801620003c3565b95945050505050565b6000806000606084860312156200030f578283fd5b83516001600160401b038082111562000326578485fd5b620003348783880162000271565b945060208601519150808211156200034a578384fd5b620003588783880162000271565b935060408601519150808211156200036e578283fd5b506200037d8682870162000271565b9150509250925092565b6000838252604060208301528251806040840152620003ae816060850160208701620003c3565b601f01601f1916919091016060019392505050565b60005b83811015620003e0578181015183820152602001620003c6565b83811115620003f0576000848401525b50505050565b6002810460018216806200040b57607f821691505b602082108114156200042d57634e487b7160e01b600052602260045260246000fd5b50919050565b634e487b7160e01b600052604160045260246000fd5b6132a280620004596000396000f3fe60806040526004361061021a5760003560e01c8063759076e511610123578063bdf8e426116100ab578063f02ad03b1161006f578063f02ad03b1461055d578063f5d132501461057d578063f67c76b51461059d578063f6be4cba146105b2578063feea6cf6146105c75761021a565b8063bdf8e426146104e0578063c428fc3214610500578063c89e54c914610513578063e377ac3114610533578063eebb1363146105485761021a565b806395d89b41116100f257806395d89b411461046c578063968b106a146104815780639c210ca8146104a1578063a94ac1d9146104b6578063aeade3a6146104cb5761021a565b8063759076e5146104185780637ac0133d1461042d57806384a60ff41461044257806389833f5b146104575761021a565b806346a0e3c8116101a65780635a69c1db116101755780635a69c1db146103995780636352211e146103ae57806363b0e66a146103ce5780636e12a61f146103e357806374754282146104035761021a565b806346a0e3c81461033a578063502beded1461034f57806357c81e981461036457806358892d10146103795761021a565b806314f515ad116101ed57806314f515ad146102a35780632672f526146102b857806340c10f19146102da57806344c6ae60146102fa57806346155afa1461031a5761021a565b806302fb0c5e1461021f57806306fdde031461024a5780630fe702291461026c57806314a3a3d214610281575b600080fd5b34801561022b57600080fd5b506102346105e7565b6040516102419190613027565b60405180910390f35b34801561025657600080fd5b5061025f6105f7565b604051610241919061304b565b61027f61027a366004612d60565b610689565b005b34801561028d57600080fd5b506102966107df565b60405161024191906130cf565b3480156102af57600080fd5b506102346107e5565b3480156102c457600080fd5b506102cd6107f5565b6040516102419190612fb2565b3480156102e657600080fd5b5061027f6102f5366004612d35565b610804565b34801561030657600080fd5b5061027f610315366004612dc3565b610870565b34801561032657600080fd5b5061027f610335366004612eee565b610994565b34801561034657600080fd5b50610296610b8b565b34801561035b57600080fd5b5061025f610b91565b34801561037057600080fd5b50610296610c1f565b34801561038557600080fd5b5061027f610394366004612e76565b610c25565b3480156103a557600080fd5b5061025f610f24565b3480156103ba57600080fd5b506102cd6103c9366004612dc3565b610f31565b3480156103da57600080fd5b506102cd610f8d565b3480156103ef57600080fd5b5061027f6103fe366004612f3c565b610f9c565b34801561040f57600080fd5b506102cd6110dc565b34801561042457600080fd5b506102966110eb565b34801561043957600080fd5b506102cd6110f1565b34801561044e57600080fd5b5061025f611100565b34801561046357600080fd5b5061029661110d565b34801561047857600080fd5b5061025f611113565b34801561048d57600080fd5b5061027f61049c366004612ea9565b611122565b3480156104ad57600080fd5b506102cd6112ed565b3480156104c257600080fd5b5061025f6112fc565b3480156104d757600080fd5b50610296611309565b3480156104ec57600080fd5b5061027f6104fb366004612eee565b61130f565b61027f61050e366004612d35565b61146e565b34801561051f57600080fd5b5061027f61052e366004612ea9565b6116d6565b34801561053f57600080fd5b50610234611871565b34801561055457600080fd5b50610234611881565b34801561056957600080fd5b5061027f610578366004612dc3565b61188a565b34801561058957600080fd5b5061027f610598366004612e3a565b6119dc565b3480156105a957600080fd5b5061025f611b59565b3480156105be57600080fd5b50610296611b66565b3480156105d357600080fd5b5061027f6105e2366004612ddb565b611b6c565b600754600160a01b900460ff1681565b606060048054610606906131d3565b80601f0160208091040260200160405190810160405280929190818152602001828054610632906131d3565b801561067f5780601f106106545761010080835404028352916020019161067f565b820191906000526020600020905b81548152906001019060200180831161066257829003601f168201915b5050505050905090565b61069281611dd8565b604080518082019091526005815264473036303560d81b6020820152906106d55760405162461bcd60e51b81526004016106cc919061304b565b60405180910390fd5b50600a54604080518082019091526005815264473036303360d81b6020820152906001600160a01b038581169116146107215760405162461bcd60e51b81526004016106cc919061304b565b50806009541460405180604001604052806005815260200164563038303760d81b815250906107635760405162461bcd60e51b81526004016106cc919061304b565b506040516001600160a01b038416903480156108fc02916000818181858888f19350505050158015610799573d6000803e3d6000fd5b50600034600c546107aa91906131bc565b116107c8576000600c556107be8282611e29565b60006009556107da565b34600c546107d691906131bc565b600c555b505050565b600d5481565b600854600160a01b900460ff1681565b600a546001600160a01b031681565b600854604080518082019091526005815264473036303760d81b6020820152906001600160a01b0316331461084c5760405162461bcd60e51b81526004016106cc919061304b565b50600854610863906001600160a01b031682611fdd565b61086c826120be565b5050565b60008181526020819052604090205481906001600160a01b0316338114806108bb57506001600160a01b038116600090815260036020908152604080832033845290915290205460ff165b604051806040016040528060068152602001654e303330303360d01b815250906108f85760405162461bcd60e51b81526004016106cc919061304b565b506065600954141560405180604001604052806005815260200164563038303960d81b8152509061093c5760405162461bcd60e51b81526004016106cc919061304b565b5060085460408051808201909152600581526423981b181b60d91b602082015290600160a01b900460ff1615156001146109895760405162461bcd60e51b81526004016106cc919061304b565b505060656009555050565b601254604080518082019091526005815264048303930360dc1b6020820152906001600160a01b031633146109dc5760405162461bcd60e51b81526004016106cc919061304b565b50601c5460408051808201909152600581526424181c981b60d91b60208201529015610a1b5760405162461bcd60e51b81526004016106cc919061304b565b50600654600084815260208181526040918290205482518084019093526005835264563038303560d81b9183019190915290916001600160a01b03918216911614610a795760405162461bcd60e51b81526004016106cc919061304b565b5060135482118015610a8d57506015548210155b6040518060400160405280600581526020016424181c981960d91b81525090610ac95760405162461bcd60e51b81526004016106cc919061304b565b506101f4601a541460405180604001604052806005815260200164483039303560d81b81525090610b0d5760405162461bcd60e51b81526004016106cc919061304b565b50601354601c5560148054601d9190610b25906131d3565b610b30929190612ba0565b5060138290558051610b49906014906020840190612c2b565b50601554601e5560168054601f9190610b61906131d3565b610b6c929190612ba0565b5060158290558051610b85906016906020840190612c2b565b50505050565b600c5481565b60198054610b9e906131d3565b80601f0160208091040260200160405190810160405280929190818152602001828054610bca906131d3565b8015610c175780601f10610bec57610100808354040283529160200191610c17565b820191906000526020600020905b815481529060010190602001808311610bfa57829003601f168201915b505050505081565b600b5481565b60008281526020819052604090205482906001600160a01b031633811480610c7057506001600160a01b038116600090815260036020908152604080832033845290915290205460ff165b604051806040016040528060068152602001654e303330303360d01b81525090610cad5760405162461bcd60e51b81526004016106cc919061304b565b50600654600085815260208181526040918290205482518084019093526005835264563038303560d81b9183019190915290916001600160a01b03918216911614610d0b5760405162461bcd60e51b81526004016106cc919061304b565b50601254604080518082019091526005815264120c0e4c0d60da1b6020820152906001600160a01b0316610d525760405162461bcd60e51b81526004016106cc919061304b565b506000601c5560018315151415610ea457601280546001600160a01b0319169055604080516020810191829052600090819052610d9191601d91612c2b565b5060006009556012546015546040516001600160a01b03909216917f9a54dfd33ef37826a325f30b78b24a059ebfa1c1a5b27e39ed19d55cdd12d5c191610dda916016906130d8565b60405180910390a26101f4601a541415610e3a576012546013546040516001600160a01b03909216917f43eff320782095f8e442f3697650e8ac7cf593f080b2734b803697c135085a1a91610e31916014906130d8565b60405180910390a25b6101f5601a541415610e9f576012546015546040516001600160a01b03909216917f1b783ee74c26e7fed6a1ae363b8fda232fd6a2102341c671e89974cc8291927891610e89916014906130d8565b60405180910390a26018805460ff191660011790555b610b85565b601f6016908054610eb4906131d3565b610ebf929190612ba0565b50601c54601555601a546101f41415610ef657601c54601355601d805460149190610ee9906131d3565b610ef4929190612ba0565b505b6101f5601a541415610b8557601d6019908054610f12906131d3565b610f1d929190612ba0565b5050505050565b60168054610b9e906131d3565b60008181526020818152604091829020548251808401909352600683526527181998181960d11b918301919091526001600160a01b03169081610f875760405162461bcd60e51b81526004016106cc919061304b565b50919050565b6012546001600160a01b031681565b600a5460408051808201909152601a81527f4e4f5420455845435554454420425920474f5645524e4d454e540000000000006020820152906001600160a01b03163314610ffc5760405162461bcd60e51b81526004016106cc919061304b565b5061100681611dd8565b604080518082019091526005815264473036303560d81b6020820152906110405760405162461bcd60e51b81526004016106cc919061304b565b506000600954116040518060400160405280600581526020016411cc0d8c0d60da1b815250906110835760405162461bcd60e51b81526004016106cc919061304b565b50806009541460405180604001604052806005815260200164563038303760d81b815250906110c55760405162461bcd60e51b81526004016106cc919061304b565b506110d08183612146565b5050600b819055600c55565b6008546001600160a01b031681565b600e5481565b6006546001600160a01b031681565b600f8054610b9e906131d3565b60095481565b606060058054610606906131d3565b60008281526020819052604090205482906001600160a01b03163381148061116d57506001600160a01b038116600090815260036020908152604080832033845290915290205460ff165b604051806040016040528060068152602001654e303330303360d01b815250906111aa5760405162461bcd60e51b81526004016106cc919061304b565b50600654600085815260208181526040918290205482518084019093526005835264563038303560d81b9183019190915290916001600160a01b039182169116146112085760405162461bcd60e51b81526004016106cc919061304b565b50600854604080518082019091526005815264056303831360dc1b602082015290600160a01b900460ff16156112515760405162461bcd60e51b81526004016106cc919061304b565b5060095460408051808201909152600581526411cc0d8c0d60da1b602082015290156112905760405162461bcd60e51b81526004016106cc919061304b565b506008805460ff60a81b1960ff60a01b19909116600160a01b171690556040517fdfaefdaf6c3454d6aa0ad3cb0ef14582ebcb3cf5fe7b7762cb912636de70bef0906112df9033908690613003565b60405180910390a150505050565b6007546001600160a01b031681565b60148054610b9e906131d3565b60155481565b601254604080518082019091526005815264048303930360dc1b6020820152906001600160a01b031633146113575760405162461bcd60e51b81526004016106cc919061304b565b50601c5460408051808201909152600581526424181c981b60d91b602082015290156113965760405162461bcd60e51b81526004016106cc919061304b565b50600654600084815260208181526040918290205482518084019093526005835264563038303560d81b9183019190915290916001600160a01b039182169116146113f45760405162461bcd60e51b81526004016106cc919061304b565b506101f5601a541460405180604001604052806005815260200164483039303560d81b815250906114385760405162461bcd60e51b81526004016106cc919061304b565b506001601c5560198054601d919061144f906131d3565b61145a929190612ba0565b508051610b6c906019906020840190612c2b565b600a546040805180820190915260058152640ac607060760db1b602082015290600160a01b900460ff16156114b65760405162461bcd60e51b81526004016106cc919061304b565b50600754604080518082019091526005815264056303830360dc1b6020820152906001600160a01b031633146114ff5760405162461bcd60e51b81526004016106cc919061304b565b50600081815260208181526040918290205482518084019093526005835264563038303160d81b918301919091526001600160a01b038481169116146115585760405162461bcd60e51b81526004016106cc919061304b565b5060c86009541460405180604001604052806005815260200164563038303760d81b8152509061159b5760405162461bcd60e51b81526004016106cc919061304b565b506040516001600160a01b038316903480156108fc02916000818181858888f193505050501580156115d1573d6000803e3d6000fd5b50601180546001600160a01b0319166001600160a01b038416179055600e546000906115fe9034906131bc565b116116c1576000600e55600d5460408051808201825260058152642b181c181960d91b60208201529051339260008051602061324d8339815191529261164392613032565b60405180910390a26116668233836040518060200160405280600081525061227f565b6006546040805180820182526005815264563038303360d81b602082015290516001600160a01b039092169160008051602061324d833981519152916116af9160009190613032565b60405180910390a2600060095561086c565b34600e546116cf91906131bc565b600e555050565b60008281526020819052604090205482906001600160a01b03163381148061172157506001600160a01b038116600090815260036020908152604080832033845290915290205460ff165b604051806040016040528060068152602001654e303330303360d01b8152509061175e5760405162461bcd60e51b81526004016106cc919061304b565b50600654600085815260208181526040918290205482518084019093526005835264563038303560d81b9183019190915290916001600160a01b039182169116146117bc5760405162461bcd60e51b81526004016106cc919061304b565b50601b54604080518082019091526005815264056303831360dc1b60208201529060ff16156117fe5760405162461bcd60e51b81526004016106cc919061304b565b5060095460408051808201909152600581526411cc0d8c0d60da1b6020820152901561183d5760405162461bcd60e51b81526004016106cc919061304b565b50601b805460ff191660011790556008805460ff60a81b1916905561012c6009558251610f1d90600f906020860190612c2b565b600854600160a81b900460ff1681565b60185460ff1681565b60008181526020819052604090205481906001600160a01b0316338114806118d557506001600160a01b038116600090815260036020908152604080832033845290915290205460ff165b604051806040016040528060068152602001654e303330303360d01b815250906119125760405162461bcd60e51b81526004016106cc919061304b565b50600854604080518082019091526005815264158c0e0c0d60da1b602082015290600160a81b900460ff16151560011461195f5760405162461bcd60e51b81526004016106cc919061304b565b50600654600084815260208181526040918290205482518084019093526005835264563038303560d81b9183019190915290916001600160a01b03918216911614156119be5760405162461bcd60e51b81526004016106cc919061304b565b5050600a805460ff60a01b1916600160a01b17905550506064600955565b60008281526020819052604090205482906001600160a01b031633811480611a2757506001600160a01b038116600090815260036020908152604080832033845290915290205460ff165b604051806040016040528060068152602001654e303330303360d01b81525090611a645760405162461bcd60e51b81526004016106cc919061304b565b5060085460408051808201909152600581526411cc0d8c0d60da1b602082015290600160a81b900460ff161515600114611ab15760405162461bcd60e51b81526004016106cc919061304b565b5060008611611ad25760405162461bcd60e51b81526004016106cc9061308b565b611adb83611dd8565b604080518082019091526005815264473036303560d81b602082015290611b155760405162461bcd60e51b81526004016106cc919061304b565b506009839055600d869055600e869055600780546001600160a01b0319166001600160a01b038781169190911791829055611b51911685612529565b505050505050565b60178054610b9e906131d3565b60135481565b60008481526020819052604090205484906001600160a01b031633811480611bb757506001600160a01b038116600090815260036020908152604080832033845290915290205460ff165b604051806040016040528060068152602001654e303330303360d01b81525090611bf45760405162461bcd60e51b81526004016106cc919061304b565b50601254604080518082019091526005815264483039303360d81b6020820152906001600160a01b031615611c3c5760405162461bcd60e51b81526004016106cc919061304b565b50600654600087815260208181526040918290205482518084019093526005835264563038303560d81b9183019190915290916001600160a01b03918216911614611c9a5760405162461bcd60e51b81526004016106cc919061304b565b50600654604080518082019091526005815264483039303160d81b6020820152906001600160a01b0387811691161415611ce75760405162461bcd60e51b81526004016106cc919061304b565b506000611cf3846126c7565b1160405180604001604052806005815260200164120c0e4c0d60da1b81525090611d305760405162461bcd60e51b81526004016106cc919061304b565b5060095460408051808201909152600581526411cc0d8c0d60da1b60208201529015611d6f5760405162461bcd60e51b81526004016106cc919061304b565b50601a839055601280546001600160a01b0319166001600160a01b03871690811790915560098490556040517f28da532863ca5b8347df03d5c71a3da841ec340505f5bd0061130c2f23e676d290611dc890879061304b565b60405180910390a2505050505050565b60006064821415611deb57506064611e24565b6065821415611dfc57506065611e24565b60c8821415611e0d575060c8611e24565b61012c821415611e20575061012c611e24565b5060005b919050565b6064811415611f0757600754601154600b546040516001600160a01b0393841693909216917f3ee2f6fe89660c4c7e1bbc804840941a5b8f202af2f8ed08d1f4541919aa46aa91611e7b91879061318a565b60405180910390a3600b546040805180820182526005815264047303631360dc1b60208201529051339260008051602061324d83398151915292611ebe92613032565b60405180910390a2601154600754611ee3916001600160a01b039081169116846126ef565b600a805460ff60a01b1990811690915560078054909116600160a01b17905561086c565b6065811415611f6d57600b546040805180820182526005815264473036313160d81b60208201529051339260008051602061324d83398151915292611f4b92613032565b60405180910390a26008805460ff60a01b19169055611f68612941565b61086c565b61012c81141561086c57600b54604080518082018252600581526423981b189960d91b60208201529051339260008051602061324d83398151915292611fb292613032565b60405180910390a26007805460ff60a01b19169055600654611f68906001600160a01b031683612980565b6040805180820190915260068152654e303330303160d01b60208201526001600160a01b0383166120215760405162461bcd60e51b81526004016106cc919061304b565b5060008181526020818152604091829020548251808401909352600683526527181998181b60d11b918301919091526001600160a01b0316156120775760405162461bcd60e51b81526004016106cc919061304b565b506120828282612a27565b60405181906001600160a01b038416906000907fddf252ad1be2c89b69c2b068fc378daa952ba7f163c4a11628f55a4df523b3ef908290a45050565b600a5460408051808201909152600581526423981b181960d91b6020820152906001600160a01b0316156121055760405162461bcd60e51b81526004016106cc919061304b565b50600a80546001600160a01b039283166001600160a01b03199182161790915560085460078054831691909316908117909255601080549091169091179055565b606482141561220057600654600082815260208181526040918290205482518084019093526005835264563038303560d81b9183019190915290916001600160a01b03918216911614156121ad5760405162461bcd60e51b81526004016106cc919061304b565b50600a54604080518082019091526005815264158c0e0c0d60da1b602082015290600160a01b900460ff1615156001146121fa5760405162461bcd60e51b81526004016106cc919061304b565b5061086c565b60658214156122555760085460408051808201909152600581526423981b181b60d91b602082015290600160a01b900460ff1615156001146121fa5760405162461bcd60e51b81526004016106cc919061304b565b600854600160a01b900460ff161561086c5760405162461bcd60e51b81526004016106cc9061305e565b60008281526020819052604090205482906001600160a01b0316338114806122bd57506000828152600160205260409020546001600160a01b031633145b806122eb57506001600160a01b038116600090815260036020908152604080832033845290915290205460ff165b60405180604001604052806006815260200165138c0ccc0c0d60d21b815250906123285760405162461bcd60e51b81526004016106cc919061304b565b5060008481526020818152604091829020548251808401909352600683526527181998181960d11b918301919091528591906001600160a01b03166123805760405162461bcd60e51b81526004016106cc919061304b565b506000858152602081815260409182902054825180840190935260068352654e303330303760d01b918301919091526001600160a01b039081169190891682146123dd5760405162461bcd60e51b81526004016106cc919061304b565b506040805180820190915260068152654e303330303160d01b60208201526001600160a01b0388166124225760405162461bcd60e51b81526004016106cc919061304b565b5061242d8787612acb565b61243f876001600160a01b0316612b46565b1561251f57604051630a85bd0160e11b81526000906001600160a01b0389169063150b7a02906124799033908d908c908c90600401612fc6565b602060405180830381600087803b15801561249357600080fd5b505af11580156124a7573d6000803e3d6000fd5b505050506040513d601f19601f820116820180604052508101906124cb9190612d94565b6040805180820190915260068152654e303330303560d01b60208201529091506001600160e01b03198216630a85bd0160e11b1461251c5760405162461bcd60e51b81526004016106cc919061304b565b50505b5050505050505050565b60008181526020819052604090205481906001600160a01b03163381148061257457506001600160a01b038116600090815260036020908152604080832033845290915290205460ff165b604051806040016040528060068152602001654e303330303360d01b815250906125b15760405162461bcd60e51b81526004016106cc919061304b565b5060008381526020818152604091829020548251808401909352600683526527181998181960d11b918301919091528491906001600160a01b03166126095760405162461bcd60e51b81526004016106cc919061304b565b5060008481526020818152604091829020548251808401909352600683526509c60666060760d31b918301919091526001600160a01b03908116919087168214156126675760405162461bcd60e51b81526004016106cc919061304b565b5060008581526001602052604080822080546001600160a01b0319166001600160a01b038a811691821790925591518893918516917f8c5be1e5ebec7d5bd14f71427d1e84f3dd0314c0f7b2291e5b200ac8c7c3b92591a4505050505050565b60006101f48214156126dc57506101f4611e24565b6101f5821415611e2057506101f5611e24565b60008181526020819052604090205481906001600160a01b03163381148061273a57506001600160a01b038116600090815260036020908152604080832033845290915290205460ff165b604051806040016040528060068152602001654e303330303360d01b815250906127775760405162461bcd60e51b81526004016106cc919061304b565b50604080518082019091526005815264047303630360dc1b60208201526001600160a01b0385166127bb5760405162461bcd60e51b81526004016106cc919061304b565b5060075460408051808201909152601981527f4552524f523a204e4557204f574e45522041535349474e4544000000000000006020820152906001600160a01b0386811691161461281f5760405162461bcd60e51b81526004016106cc919061304b565b506001600160a01b03851661287f5760085460408051808201909152600581526408e606c60760db1b6020820152906001600160a01b038681169116146128795760405162461bcd60e51b81526004016106cc919061304b565b506128cc565b600654604080518082019091526005815264473036303160d81b6020820152906001600160a01b038781169116146128ca5760405162461bcd60e51b81526004016106cc919061304b565b505b836001600160a01b0316856001600160a01b03167f8be0079c531659141344cd1fd0a4f28419497f9722a3daafe3b4186f6b6457e060405160405180910390a35050600680546001600160a01b039093166001600160a01b031993841617905550601080548216905560078054909116905550565b600854600160a01b900460ff1615156001141561296a576008805460ff60a81b1916905561297e565b6008805460ff60a81b1916600160a81b1790555b565b6000818152602081815260409182902054825180840190935260068352654e303330303760d01b918301919091526001600160a01b038481169116146129d95760405162461bcd60e51b81526004016106cc919061304b565b506001600160a01b0382166000908152600260205260408120805460019290612a039084906131bc565b9091555050600090815260208190526040902080546001600160a01b031916905550565b60008181526020818152604091829020548251808401909352600683526527181998181b60d11b918301919091526001600160a01b031615612a7c5760405162461bcd60e51b81526004016106cc919061304b565b5060008181526020818152604080832080546001600160a01b0319166001600160a01b038716908117909155835260029091528120805460019290612ac29084906131a4565b90915550505050565b6000818152602081905260409020546001600160a01b0316612aec82612b82565b612af68183612980565b612b008383612a27565b81836001600160a01b0316826001600160a01b03167fddf252ad1be2c89b69c2b068fc378daa952ba7f163c4a11628f55a4df523b3ef60405160405180910390a4505050565b6000813f7fc5d2460186f7233c927e7db2dcc703c0e500b653ca82273b7bfad8045d85a4708115801590612b7a5750808214155b949350505050565b600090815260016020526040902080546001600160a01b0319169055565b828054612bac906131d3565b90600052602060002090601f016020900481019282612bce5760008555612c1b565b82601f10612bdf5780548555612c1b565b82800160010185558215612c1b57600052602060002091601f016020900482015b82811115612c1b578254825591600101919060010190612c00565b50612c27929150612c9f565b5090565b828054612c37906131d3565b90600052602060002090601f016020900481019282612c595760008555612c1b565b82601f10612c7257805160ff1916838001178555612c1b565b82800160010185558215612c1b579182015b82811115612c1b578251825591602001919060010190612c84565b5b80821115612c275760008155600101612ca0565b600082601f830112612cc4578081fd5b813567ffffffffffffffff80821115612cdf57612cdf61321e565b604051601f8301601f191681016020018281118282101715612d0357612d0361321e565b604052828152848301602001861015612d1a578384fd5b82602086016020830137918201602001929092529392505050565b60008060408385031215612d47578182fd5b8235612d5281613234565b946020939093013593505050565b600080600060608486031215612d74578081fd5b8335612d7f81613234565b95602085013595506040909401359392505050565b600060208284031215612da5578081fd5b81516001600160e01b031981168114612dbc578182fd5b9392505050565b600060208284031215612dd4578081fd5b5035919050565b60008060008060808587031215612df0578081fd5b843593506020850135612e0281613234565b9250604085013567ffffffffffffffff811115612e1d578182fd5b612e2987828801612cb4565b949793965093946060013593505050565b60008060008060808587031215612e4f578384fd5b843593506020850135612e6181613234565b93969395505050506040820135916060013590565b60008060408385031215612e88578182fd5b8235915060208301358015158114612e9e578182fd5b809150509250929050565b60008060408385031215612ebb578182fd5b82359150602083013567ffffffffffffffff811115612ed8578182fd5b612ee485828601612cb4565b9150509250929050565b600080600060608486031215612f02578283fd5b8335925060208401359150604084013567ffffffffffffffff811115612f26578182fd5b612f3286828701612cb4565b9150509250925092565b600080600060608486031215612f50578283fd5b505081359360208301359350604090920135919050565b60008151808452815b81811015612f8c57602081850181015186830182015201612f70565b81811115612f9d5782602083870101525b50601f01601f19169290920160200192915050565b6001600160a01b0391909116815260200190565b6001600160a01b0385811682528416602082015260408101839052608060608201819052600090612ff990830184612f67565b9695505050505050565b6001600160a01b0383168152604060208201819052600090612b7a90830184612f67565b901515815260200190565b600083825260406020830152612b7a6040830184612f67565b600060208252612dbc6020830184612f67565b6020808252601390820152721393d508125354131153515395115108165155606a1b604082015260600190565b60208082526024908201527f50524943452050524f504f53414c204d555354204245204249474745522054486040820152630414e20360e41b606082015260800190565b90815260200190565b600083825260206040818401528184548360028204905060018083168061310057607f831692505b85831081141561311e57634e487b7160e01b87526022600452602487fd5b61312b8360408a016130cf565b81801561313f57600181146131505761317a565b60ff1986168252878201965061317a565b6131598b613198565b895b868110156131745781548482015290850190890161315b565b83019750505b50949a9950505050505050505050565b918252602082015260400190565b60009081526020902090565b600082198211156131b7576131b7613208565b500190565b6000828210156131ce576131ce613208565b500390565b6002810460018216806131e757607f821691505b60208210811415610f8757634e487b7160e01b600052602260045260246000fd5b634e487b7160e01b600052601160045260246000fd5b634e487b7160e01b600052604160045260246000fd5b6001600160a01b038116811461324957600080fd5b5056fe8a0ef5c7c4ebfb0507f94843dcc14ec4b1d4816caf28a48931136beec636b3b2a264697066735822122089dc15d9840af677c4b15e4030100aff7d8e0a7783bfc34ba84518d3ea9acbd064736f6c63430008000033",
			"opcodes": "PUSH1 0x7 DUP1 SLOAD PUSH1 0x1 PUSH1 0x1 PUSH1 0xA8 SHL SUB NOT AND SWAP1 SSTORE PUSH1 0x8 DUP1 SLOAD PUSH2 0xFFFF PUSH1 0xA0 SHL NOT AND PUSH1 0x1 PUSH1 0xA8 SHL OR SWAP1 SSTORE PUSH1 0x0 PUSH1 0x9 DUP2 SWAP1 SSTORE PUSH1 0xA DUP1 SLOAD PUSH1 0xFF PUSH1 0xA0 SHL NOT AND SWAP1 SSTORE PUSH1 0xB DUP2 SWAP1 SSTORE PUSH1 0xC DUP2 SWAP1 SSTORE PUSH1 0xD DUP2 SWAP1 SSTORE PUSH1 0xE DUP2 SWAP1 SSTORE PUSH1 0xA0 PUSH1 0x40 DUP2 SWAP1 MSTORE PUSH1 0x80 DUP3 SWAP1 MSTORE PUSH3 0x66 SWAP2 PUSH1 0xF SWAP2 SWAP1 PUSH3 0x1CB JUMP JUMPDEST POP PUSH1 0x10 DUP1 SLOAD PUSH1 0x1 PUSH1 0x1 PUSH1 0xA0 SHL SUB NOT SWAP1 DUP2 AND SWAP1 SWAP2 SSTORE PUSH1 0x11 DUP1 SLOAD DUP3 AND SWAP1 SSTORE PUSH1 0x12 DUP1 SLOAD SWAP1 SWAP2 AND SWAP1 SSTORE PUSH1 0x0 PUSH1 0x13 DUP2 SWAP1 SSTORE PUSH1 0x40 DUP1 MLOAD PUSH1 0x20 DUP2 ADD SWAP2 DUP3 SWAP1 MSTORE DUP3 SWAP1 MSTORE PUSH3 0xB0 SWAP2 PUSH1 0x14 SWAP2 SWAP1 PUSH3 0x1CB JUMP JUMPDEST POP PUSH1 0x0 PUSH1 0x15 DUP2 SWAP1 SSTORE PUSH1 0x40 DUP1 MLOAD PUSH1 0x20 DUP2 ADD SWAP2 DUP3 SWAP1 MSTORE DUP3 SWAP1 MSTORE PUSH3 0xD6 SWAP2 PUSH1 0x16 SWAP2 SWAP1 PUSH3 0x1CB JUMP JUMPDEST POP PUSH1 0x18 DUP1 SLOAD PUSH1 0xFF NOT SWAP1 DUP2 AND SWAP1 SWAP2 SSTORE PUSH1 0x0 PUSH1 0x1A DUP2 SWAP1 SSTORE PUSH1 0x1B DUP1 SLOAD SWAP1 SWAP3 AND SWAP1 SWAP2 SSTORE PUSH1 0x1C SSTORE CALLVALUE DUP1 ISZERO PUSH3 0x105 JUMPI PUSH1 0x0 DUP1 REVERT JUMPDEST POP PUSH1 0x40 MLOAD PUSH3 0x36FB CODESIZE SUB DUP1 PUSH3 0x36FB DUP4 CODECOPY DUP2 ADD PUSH1 0x40 DUP2 SWAP1 MSTORE PUSH3 0x128 SWAP2 PUSH3 0x2FA JUMP JUMPDEST DUP3 MLOAD PUSH3 0x13D SWAP1 PUSH1 0x4 SWAP1 PUSH1 0x20 DUP7 ADD SWAP1 PUSH3 0x1CB JUMP JUMPDEST POP DUP2 MLOAD PUSH3 0x153 SWAP1 PUSH1 0x5 SWAP1 PUSH1 0x20 DUP6 ADD SWAP1 PUSH3 0x1CB JUMP JUMPDEST POP PUSH1 0x8 DUP1 SLOAD PUSH1 0x1 PUSH1 0x1 PUSH1 0xA0 SHL SUB NOT AND CALLER OR SWAP1 SSTORE DUP1 MLOAD PUSH3 0x17B SWAP1 PUSH1 0x17 SWAP1 PUSH1 0x20 DUP5 ADD SWAP1 PUSH3 0x1CB JUMP JUMPDEST POP CALLER PUSH1 0x1 PUSH1 0x1 PUSH1 0xA0 SHL SUB AND PUSH32 0x8A0EF5C7C4EBFB0507F94843DCC14EC4B1D4816CAF28A48931136BEEC636B3B2 PUSH1 0x0 DUP4 PUSH1 0x40 MLOAD PUSH3 0x1BA SWAP3 SWAP2 SWAP1 PUSH3 0x387 JUMP JUMPDEST PUSH1 0x40 MLOAD DUP1 SWAP2 SUB SWAP1 LOG2 POP POP POP PUSH3 0x449 JUMP JUMPDEST DUP3 DUP1 SLOAD PUSH3 0x1D9 SWAP1 PUSH3 0x3F6 JUMP JUMPDEST SWAP1 PUSH1 0x0 MSTORE PUSH1 0x20 PUSH1 0x0 KECCAK256 SWAP1 PUSH1 0x1F ADD PUSH1 0x20 SWAP1 DIV DUP2 ADD SWAP3 DUP3 PUSH3 0x1FD JUMPI PUSH1 0x0 DUP6 SSTORE PUSH3 0x248 JUMP JUMPDEST DUP3 PUSH1 0x1F LT PUSH3 0x218 JUMPI DUP1 MLOAD PUSH1 0xFF NOT AND DUP4 DUP1 ADD OR DUP6 SSTORE PUSH3 0x248 JUMP JUMPDEST DUP3 DUP1 ADD PUSH1 0x1 ADD DUP6 SSTORE DUP3 ISZERO PUSH3 0x248 JUMPI SWAP2 DUP3 ADD JUMPDEST DUP3 DUP2 GT ISZERO PUSH3 0x248 JUMPI DUP3 MLOAD DUP3 SSTORE SWAP2 PUSH1 0x20 ADD SWAP2 SWAP1 PUSH1 0x1 ADD SWAP1 PUSH3 0x22B JUMP JUMPDEST POP PUSH3 0x256 SWAP3 SWAP2 POP PUSH3 0x25A JUMP JUMPDEST POP SWAP1 JUMP JUMPDEST JUMPDEST DUP1 DUP3 GT ISZERO PUSH3 0x256 JUMPI PUSH1 0x0 DUP2 SSTORE PUSH1 0x1 ADD PUSH3 0x25B JUMP JUMPDEST PUSH1 0x0 DUP3 PUSH1 0x1F DUP4 ADD SLT PUSH3 0x282 JUMPI DUP1 DUP2 REVERT JUMPDEST DUP2 MLOAD PUSH1 0x1 PUSH1 0x1 PUSH1 0x40 SHL SUB DUP1 DUP3 GT ISZERO PUSH3 0x29F JUMPI PUSH3 0x29F PUSH3 0x433 JUMP JUMPDEST PUSH1 0x40 MLOAD PUSH1 0x1F DUP4 ADD PUSH1 0x1F NOT AND DUP2 ADD PUSH1 0x20 ADD DUP3 DUP2 GT DUP3 DUP3 LT OR ISZERO PUSH3 0x2C6 JUMPI PUSH3 0x2C6 PUSH3 0x433 JUMP JUMPDEST PUSH1 0x40 MSTORE DUP3 DUP2 MSTORE DUP5 DUP4 ADD PUSH1 0x20 ADD DUP7 LT ISZERO PUSH3 0x2DE JUMPI DUP4 DUP5 REVERT JUMPDEST PUSH3 0x2F1 DUP4 PUSH1 0x20 DUP4 ADD PUSH1 0x20 DUP9 ADD PUSH3 0x3C3 JUMP JUMPDEST SWAP6 SWAP5 POP POP POP POP POP JUMP JUMPDEST PUSH1 0x0 DUP1 PUSH1 0x0 PUSH1 0x60 DUP5 DUP7 SUB SLT ISZERO PUSH3 0x30F JUMPI DUP3 DUP4 REVERT JUMPDEST DUP4 MLOAD PUSH1 0x1 PUSH1 0x1 PUSH1 0x40 SHL SUB DUP1 DUP3 GT ISZERO PUSH3 0x326 JUMPI DUP5 DUP6 REVERT JUMPDEST PUSH3 0x334 DUP8 DUP4 DUP9 ADD PUSH3 0x271 JUMP JUMPDEST SWAP5 POP PUSH1 0x20 DUP7 ADD MLOAD SWAP2 POP DUP1 DUP3 GT ISZERO PUSH3 0x34A JUMPI DUP4 DUP5 REVERT JUMPDEST PUSH3 0x358 DUP8 DUP4 DUP9 ADD PUSH3 0x271 JUMP JUMPDEST SWAP4 POP PUSH1 0x40 DUP7 ADD MLOAD SWAP2 POP DUP1 DUP3 GT ISZERO PUSH3 0x36E JUMPI DUP3 DUP4 REVERT JUMPDEST POP PUSH3 0x37D DUP7 DUP3 DUP8 ADD PUSH3 0x271 JUMP JUMPDEST SWAP2 POP POP SWAP3 POP SWAP3 POP SWAP3 JUMP JUMPDEST PUSH1 0x0 DUP4 DUP3 MSTORE PUSH1 0x40 PUSH1 0x20 DUP4 ADD MSTORE DUP3 MLOAD DUP1 PUSH1 0x40 DUP5 ADD MSTORE PUSH3 0x3AE DUP2 PUSH1 0x60 DUP6 ADD PUSH1 0x20 DUP8 ADD PUSH3 0x3C3 JUMP JUMPDEST PUSH1 0x1F ADD PUSH1 0x1F NOT AND SWAP2 SWAP1 SWAP2 ADD PUSH1 0x60 ADD SWAP4 SWAP3 POP POP POP JUMP JUMPDEST PUSH1 0x0 JUMPDEST DUP4 DUP2 LT ISZERO PUSH3 0x3E0 JUMPI DUP2 DUP2 ADD MLOAD DUP4 DUP3 ADD MSTORE PUSH1 0x20 ADD PUSH3 0x3C6 JUMP JUMPDEST DUP4 DUP2 GT ISZERO PUSH3 0x3F0 JUMPI PUSH1 0x0 DUP5 DUP5 ADD MSTORE JUMPDEST POP POP POP POP JUMP JUMPDEST PUSH1 0x2 DUP2 DIV PUSH1 0x1 DUP3 AND DUP1 PUSH3 0x40B JUMPI PUSH1 0x7F DUP3 AND SWAP2 POP JUMPDEST PUSH1 0x20 DUP3 LT DUP2 EQ ISZERO PUSH3 0x42D JUMPI PUSH4 0x4E487B71 PUSH1 0xE0 SHL PUSH1 0x0 MSTORE PUSH1 0x22 PUSH1 0x4 MSTORE PUSH1 0x24 PUSH1 0x0 REVERT JUMPDEST POP SWAP2 SWAP1 POP JUMP JUMPDEST PUSH4 0x4E487B71 PUSH1 0xE0 SHL PUSH1 0x0 MSTORE PUSH1 0x41 PUSH1 0x4 MSTORE PUSH1 0x24 PUSH1 0x0 REVERT JUMPDEST PUSH2 0x32A2 DUP1 PUSH3 0x459 PUSH1 0x0 CODECOPY PUSH1 0x0 RETURN INVALID PUSH1 0x80 PUSH1 0x40 MSTORE PUSH1 0x4 CALLDATASIZE LT PUSH2 0x21A JUMPI PUSH1 0x0 CALLDATALOAD PUSH1 0xE0 SHR DUP1 PUSH4 0x759076E5 GT PUSH2 0x123 JUMPI DUP1 PUSH4 0xBDF8E426 GT PUSH2 0xAB JUMPI DUP1 PUSH4 0xF02AD03B GT PUSH2 0x6F JUMPI DUP1 PUSH4 0xF02AD03B EQ PUSH2 0x55D JUMPI DUP1 PUSH4 0xF5D13250 EQ PUSH2 0x57D JUMPI DUP1 PUSH4 0xF67C76B5 EQ PUSH2 0x59D JUMPI DUP1 PUSH4 0xF6BE4CBA EQ PUSH2 0x5B2 JUMPI DUP1 PUSH4 0xFEEA6CF6 EQ PUSH2 0x5C7 JUMPI PUSH2 0x21A JUMP JUMPDEST DUP1 PUSH4 0xBDF8E426 EQ PUSH2 0x4E0 JUMPI DUP1 PUSH4 0xC428FC32 EQ PUSH2 0x500 JUMPI DUP1 PUSH4 0xC89E54C9 EQ PUSH2 0x513 JUMPI DUP1 PUSH4 0xE377AC31 EQ PUSH2 0x533 JUMPI DUP1 PUSH4 0xEEBB1363 EQ PUSH2 0x548 JUMPI PUSH2 0x21A JUMP JUMPDEST DUP1 PUSH4 0x95D89B41 GT PUSH2 0xF2 JUMPI DUP1 PUSH4 0x95D89B41 EQ PUSH2 0x46C JUMPI DUP1 PUSH4 0x968B106A EQ PUSH2 0x481 JUMPI DUP1 PUSH4 0x9C210CA8 EQ PUSH2 0x4A1 JUMPI DUP1 PUSH4 0xA94AC1D9 EQ PUSH2 0x4B6 JUMPI DUP1 PUSH4 0xAEADE3A6 EQ PUSH2 0x4CB JUMPI PUSH2 0x21A JUMP JUMPDEST DUP1 PUSH4 0x759076E5 EQ PUSH2 0x418 JUMPI DUP1 PUSH4 0x7AC0133D EQ PUSH2 0x42D JUMPI DUP1 PUSH4 0x84A60FF4 EQ PUSH2 0x442 JUMPI DUP1 PUSH4 0x89833F5B EQ PUSH2 0x457 JUMPI PUSH2 0x21A JUMP JUMPDEST DUP1 PUSH4 0x46A0E3C8 GT PUSH2 0x1A6 JUMPI DUP1 PUSH4 0x5A69C1DB GT PUSH2 0x175 JUMPI DUP1 PUSH4 0x5A69C1DB EQ PUSH2 0x399 JUMPI DUP1 PUSH4 0x6352211E EQ PUSH2 0x3AE JUMPI DUP1 PUSH4 0x63B0E66A EQ PUSH2 0x3CE JUMPI DUP1 PUSH4 0x6E12A61F EQ PUSH2 0x3E3 JUMPI DUP1 PUSH4 0x74754282 EQ PUSH2 0x403 JUMPI PUSH2 0x21A JUMP JUMPDEST DUP1 PUSH4 0x46A0E3C8 EQ PUSH2 0x33A JUMPI DUP1 PUSH4 0x502BEDED EQ PUSH2 0x34F JUMPI DUP1 PUSH4 0x57C81E98 EQ PUSH2 0x364 JUMPI DUP1 PUSH4 0x58892D10 EQ PUSH2 0x379 JUMPI PUSH2 0x21A JUMP JUMPDEST DUP1 PUSH4 0x14F515AD GT PUSH2 0x1ED JUMPI DUP1 PUSH4 0x14F515AD EQ PUSH2 0x2A3 JUMPI DUP1 PUSH4 0x2672F526 EQ PUSH2 0x2B8 JUMPI DUP1 PUSH4 0x40C10F19 EQ PUSH2 0x2DA JUMPI DUP1 PUSH4 0x44C6AE60 EQ PUSH2 0x2FA JUMPI DUP1 PUSH4 0x46155AFA EQ PUSH2 0x31A JUMPI PUSH2 0x21A JUMP JUMPDEST DUP1 PUSH4 0x2FB0C5E EQ PUSH2 0x21F JUMPI DUP1 PUSH4 0x6FDDE03 EQ PUSH2 0x24A JUMPI DUP1 PUSH4 0xFE70229 EQ PUSH2 0x26C JUMPI DUP1 PUSH4 0x14A3A3D2 EQ PUSH2 0x281 JUMPI JUMPDEST PUSH1 0x0 DUP1 REVERT JUMPDEST CALLVALUE DUP1 ISZERO PUSH2 0x22B JUMPI PUSH1 0x0 DUP1 REVERT JUMPDEST POP PUSH2 0x234 PUSH2 0x5E7 JUMP JUMPDEST PUSH1 0x40 MLOAD PUSH2 0x241 SWAP2 SWAP1 PUSH2 0x3027 JUMP JUMPDEST PUSH1 0x40 MLOAD DUP1 SWAP2 SUB SWAP1 RETURN JUMPDEST CALLVALUE DUP1 ISZERO PUSH2 0x256 JUMPI PUSH1 0x0 DUP1 REVERT JUMPDEST POP PUSH2 0x25F PUSH2 0x5F7 JUMP JUMPDEST PUSH1 0x40 MLOAD PUSH2 0x241 SWAP2 SWAP1 PUSH2 0x304B JUMP JUMPDEST PUSH2 0x27F PUSH2 0x27A CALLDATASIZE PUSH1 0x4 PUSH2 0x2D60 JUMP JUMPDEST PUSH2 0x689 JUMP JUMPDEST STOP JUMPDEST CALLVALUE DUP1 ISZERO PUSH2 0x28D JUMPI PUSH1 0x0 DUP1 REVERT JUMPDEST POP PUSH2 0x296 PUSH2 0x7DF JUMP JUMPDEST PUSH1 0x40 MLOAD PUSH2 0x241 SWAP2 SWAP1 PUSH2 0x30CF JUMP JUMPDEST CALLVALUE DUP1 ISZERO PUSH2 0x2AF JUMPI PUSH1 0x0 DUP1 REVERT JUMPDEST POP PUSH2 0x234 PUSH2 0x7E5 JUMP JUMPDEST CALLVALUE DUP1 ISZERO PUSH2 0x2C4 JUMPI PUSH1 0x0 DUP1 REVERT JUMPDEST POP PUSH2 0x2CD PUSH2 0x7F5 JUMP JUMPDEST PUSH1 0x40 MLOAD PUSH2 0x241 SWAP2 SWAP1 PUSH2 0x2FB2 JUMP JUMPDEST CALLVALUE DUP1 ISZERO PUSH2 0x2E6 JUMPI PUSH1 0x0 DUP1 REVERT JUMPDEST POP PUSH2 0x27F PUSH2 0x2F5 CALLDATASIZE PUSH1 0x4 PUSH2 0x2D35 JUMP JUMPDEST PUSH2 0x804 JUMP JUMPDEST CALLVALUE DUP1 ISZERO PUSH2 0x306 JUMPI PUSH1 0x0 DUP1 REVERT JUMPDEST POP PUSH2 0x27F PUSH2 0x315 CALLDATASIZE PUSH1 0x4 PUSH2 0x2DC3 JUMP JUMPDEST PUSH2 0x870 JUMP JUMPDEST CALLVALUE DUP1 ISZERO PUSH2 0x326 JUMPI PUSH1 0x0 DUP1 REVERT JUMPDEST POP PUSH2 0x27F PUSH2 0x335 CALLDATASIZE PUSH1 0x4 PUSH2 0x2EEE JUMP JUMPDEST PUSH2 0x994 JUMP JUMPDEST CALLVALUE DUP1 ISZERO PUSH2 0x346 JUMPI PUSH1 0x0 DUP1 REVERT JUMPDEST POP PUSH2 0x296 PUSH2 0xB8B JUMP JUMPDEST CALLVALUE DUP1 ISZERO PUSH2 0x35B JUMPI PUSH1 0x0 DUP1 REVERT JUMPDEST POP PUSH2 0x25F PUSH2 0xB91 JUMP JUMPDEST CALLVALUE DUP1 ISZERO PUSH2 0x370 JUMPI PUSH1 0x0 DUP1 REVERT JUMPDEST POP PUSH2 0x296 PUSH2 0xC1F JUMP JUMPDEST CALLVALUE DUP1 ISZERO PUSH2 0x385 JUMPI PUSH1 0x0 DUP1 REVERT JUMPDEST POP PUSH2 0x27F PUSH2 0x394 CALLDATASIZE PUSH1 0x4 PUSH2 0x2E76 JUMP JUMPDEST PUSH2 0xC25 JUMP JUMPDEST CALLVALUE DUP1 ISZERO PUSH2 0x3A5 JUMPI PUSH1 0x0 DUP1 REVERT JUMPDEST POP PUSH2 0x25F PUSH2 0xF24 JUMP JUMPDEST CALLVALUE DUP1 ISZERO PUSH2 0x3BA JUMPI PUSH1 0x0 DUP1 REVERT JUMPDEST POP PUSH2 0x2CD PUSH2 0x3C9 CALLDATASIZE PUSH1 0x4 PUSH2 0x2DC3 JUMP JUMPDEST PUSH2 0xF31 JUMP JUMPDEST CALLVALUE DUP1 ISZERO PUSH2 0x3DA JUMPI PUSH1 0x0 DUP1 REVERT JUMPDEST POP PUSH2 0x2CD PUSH2 0xF8D JUMP JUMPDEST CALLVALUE DUP1 ISZERO PUSH2 0x3EF JUMPI PUSH1 0x0 DUP1 REVERT JUMPDEST POP PUSH2 0x27F PUSH2 0x3FE CALLDATASIZE PUSH1 0x4 PUSH2 0x2F3C JUMP JUMPDEST PUSH2 0xF9C JUMP JUMPDEST CALLVALUE DUP1 ISZERO PUSH2 0x40F JUMPI PUSH1 0x0 DUP1 REVERT JUMPDEST POP PUSH2 0x2CD PUSH2 0x10DC JUMP JUMPDEST CALLVALUE DUP1 ISZERO PUSH2 0x424 JUMPI PUSH1 0x0 DUP1 REVERT JUMPDEST POP PUSH2 0x296 PUSH2 0x10EB JUMP JUMPDEST CALLVALUE DUP1 ISZERO PUSH2 0x439 JUMPI PUSH1 0x0 DUP1 REVERT JUMPDEST POP PUSH2 0x2CD PUSH2 0x10F1 JUMP JUMPDEST CALLVALUE DUP1 ISZERO PUSH2 0x44E JUMPI PUSH1 0x0 DUP1 REVERT JUMPDEST POP PUSH2 0x25F PUSH2 0x1100 JUMP JUMPDEST CALLVALUE DUP1 ISZERO PUSH2 0x463 JUMPI PUSH1 0x0 DUP1 REVERT JUMPDEST POP PUSH2 0x296 PUSH2 0x110D JUMP JUMPDEST CALLVALUE DUP1 ISZERO PUSH2 0x478 JUMPI PUSH1 0x0 DUP1 REVERT JUMPDEST POP PUSH2 0x25F PUSH2 0x1113 JUMP JUMPDEST CALLVALUE DUP1 ISZERO PUSH2 0x48D JUMPI PUSH1 0x0 DUP1 REVERT JUMPDEST POP PUSH2 0x27F PUSH2 0x49C CALLDATASIZE PUSH1 0x4 PUSH2 0x2EA9 JUMP JUMPDEST PUSH2 0x1122 JUMP JUMPDEST CALLVALUE DUP1 ISZERO PUSH2 0x4AD JUMPI PUSH1 0x0 DUP1 REVERT JUMPDEST POP PUSH2 0x2CD PUSH2 0x12ED JUMP JUMPDEST CALLVALUE DUP1 ISZERO PUSH2 0x4C2 JUMPI PUSH1 0x0 DUP1 REVERT JUMPDEST POP PUSH2 0x25F PUSH2 0x12FC JUMP JUMPDEST CALLVALUE DUP1 ISZERO PUSH2 0x4D7 JUMPI PUSH1 0x0 DUP1 REVERT JUMPDEST POP PUSH2 0x296 PUSH2 0x1309 JUMP JUMPDEST CALLVALUE DUP1 ISZERO PUSH2 0x4EC JUMPI PUSH1 0x0 DUP1 REVERT JUMPDEST POP PUSH2 0x27F PUSH2 0x4FB CALLDATASIZE PUSH1 0x4 PUSH2 0x2EEE JUMP JUMPDEST PUSH2 0x130F JUMP JUMPDEST PUSH2 0x27F PUSH2 0x50E CALLDATASIZE PUSH1 0x4 PUSH2 0x2D35 JUMP JUMPDEST PUSH2 0x146E JUMP JUMPDEST CALLVALUE DUP1 ISZERO PUSH2 0x51F JUMPI PUSH1 0x0 DUP1 REVERT JUMPDEST POP PUSH2 0x27F PUSH2 0x52E CALLDATASIZE PUSH1 0x4 PUSH2 0x2EA9 JUMP JUMPDEST PUSH2 0x16D6 JUMP JUMPDEST CALLVALUE DUP1 ISZERO PUSH2 0x53F JUMPI PUSH1 0x0 DUP1 REVERT JUMPDEST POP PUSH2 0x234 PUSH2 0x1871 JUMP JUMPDEST CALLVALUE DUP1 ISZERO PUSH2 0x554 JUMPI PUSH1 0x0 DUP1 REVERT JUMPDEST POP PUSH2 0x234 PUSH2 0x1881 JUMP JUMPDEST CALLVALUE DUP1 ISZERO PUSH2 0x569 JUMPI PUSH1 0x0 DUP1 REVERT JUMPDEST POP PUSH2 0x27F PUSH2 0x578 CALLDATASIZE PUSH1 0x4 PUSH2 0x2DC3 JUMP JUMPDEST PUSH2 0x188A JUMP JUMPDEST CALLVALUE DUP1 ISZERO PUSH2 0x589 JUMPI PUSH1 0x0 DUP1 REVERT JUMPDEST POP PUSH2 0x27F PUSH2 0x598 CALLDATASIZE PUSH1 0x4 PUSH2 0x2E3A JUMP JUMPDEST PUSH2 0x19DC JUMP JUMPDEST CALLVALUE DUP1 ISZERO PUSH2 0x5A9 JUMPI PUSH1 0x0 DUP1 REVERT JUMPDEST POP PUSH2 0x25F PUSH2 0x1B59 JUMP JUMPDEST CALLVALUE DUP1 ISZERO PUSH2 0x5BE JUMPI PUSH1 0x0 DUP1 REVERT JUMPDEST POP PUSH2 0x296 PUSH2 0x1B66 JUMP JUMPDEST CALLVALUE DUP1 ISZERO PUSH2 0x5D3 JUMPI PUSH1 0x0 DUP1 REVERT JUMPDEST POP PUSH2 0x27F PUSH2 0x5E2 CALLDATASIZE PUSH1 0x4 PUSH2 0x2DDB JUMP JUMPDEST PUSH2 0x1B6C JUMP JUMPDEST PUSH1 0x7 SLOAD PUSH1 0x1 PUSH1 0xA0 SHL SWAP1 DIV PUSH1 0xFF AND DUP2 JUMP JUMPDEST PUSH1 0x60 PUSH1 0x4 DUP1 SLOAD PUSH2 0x606 SWAP1 PUSH2 0x31D3 JUMP JUMPDEST DUP1 PUSH1 0x1F ADD PUSH1 0x20 DUP1 SWAP2 DIV MUL PUSH1 0x20 ADD PUSH1 0x40 MLOAD SWAP1 DUP2 ADD PUSH1 0x40 MSTORE DUP1 SWAP3 SWAP2 SWAP1 DUP2 DUP2 MSTORE PUSH1 0x20 ADD DUP3 DUP1 SLOAD PUSH2 0x632 SWAP1 PUSH2 0x31D3 JUMP JUMPDEST DUP1 ISZERO PUSH2 0x67F JUMPI DUP1 PUSH1 0x1F LT PUSH2 0x654 JUMPI PUSH2 0x100 DUP1 DUP4 SLOAD DIV MUL DUP4 MSTORE SWAP2 PUSH1 0x20 ADD SWAP2 PUSH2 0x67F JUMP JUMPDEST DUP3 ADD SWAP2 SWAP1 PUSH1 0x0 MSTORE PUSH1 0x20 PUSH1 0x0 KECCAK256 SWAP1 JUMPDEST DUP2 SLOAD DUP2 MSTORE SWAP1 PUSH1 0x1 ADD SWAP1 PUSH1 0x20 ADD DUP1 DUP4 GT PUSH2 0x662 JUMPI DUP3 SWAP1 SUB PUSH1 0x1F AND DUP3 ADD SWAP2 JUMPDEST POP POP POP POP POP SWAP1 POP SWAP1 JUMP JUMPDEST PUSH2 0x692 DUP2 PUSH2 0x1DD8 JUMP JUMPDEST PUSH1 0x40 DUP1 MLOAD DUP1 DUP3 ADD SWAP1 SWAP2 MSTORE PUSH1 0x5 DUP2 MSTORE PUSH5 0x4730363035 PUSH1 0xD8 SHL PUSH1 0x20 DUP3 ADD MSTORE SWAP1 PUSH2 0x6D5 JUMPI PUSH1 0x40 MLOAD PUSH3 0x461BCD PUSH1 0xE5 SHL DUP2 MSTORE PUSH1 0x4 ADD PUSH2 0x6CC SWAP2 SWAP1 PUSH2 0x304B JUMP JUMPDEST PUSH1 0x40 MLOAD DUP1 SWAP2 SUB SWAP1 REVERT JUMPDEST POP PUSH1 0xA SLOAD PUSH1 0x40 DUP1 MLOAD DUP1 DUP3 ADD SWAP1 SWAP2 MSTORE PUSH1 0x5 DUP2 MSTORE PUSH5 0x4730363033 PUSH1 0xD8 SHL PUSH1 0x20 DUP3 ADD MSTORE SWAP1 PUSH1 0x1 PUSH1 0x1 PUSH1 0xA0 SHL SUB DUP6 DUP2 AND SWAP2 AND EQ PUSH2 0x721 JUMPI PUSH1 0x40 MLOAD PUSH3 0x461BCD PUSH1 0xE5 SHL DUP2 MSTORE PUSH1 0x4 ADD PUSH2 0x6CC SWAP2 SWAP1 PUSH2 0x304B JUMP JUMPDEST POP DUP1 PUSH1 0x9 SLOAD EQ PUSH1 0x40 MLOAD DUP1 PUSH1 0x40 ADD PUSH1 0x40 MSTORE DUP1 PUSH1 0x5 DUP2 MSTORE PUSH1 0x20 ADD PUSH5 0x5630383037 PUSH1 0xD8 SHL DUP2 MSTORE POP SWAP1 PUSH2 0x763 JUMPI PUSH1 0x40 MLOAD PUSH3 0x461BCD PUSH1 0xE5 SHL DUP2 MSTORE PUSH1 0x4 ADD PUSH2 0x6CC SWAP2 SWAP1 PUSH2 0x304B JUMP JUMPDEST POP PUSH1 0x40 MLOAD PUSH1 0x1 PUSH1 0x1 PUSH1 0xA0 SHL SUB DUP5 AND SWAP1 CALLVALUE DUP1 ISZERO PUSH2 0x8FC MUL SWAP2 PUSH1 0x0 DUP2 DUP2 DUP2 DUP6 DUP9 DUP9 CALL SWAP4 POP POP POP POP ISZERO DUP1 ISZERO PUSH2 0x799 JUMPI RETURNDATASIZE PUSH1 0x0 DUP1 RETURNDATACOPY RETURNDATASIZE PUSH1 0x0 REVERT JUMPDEST POP PUSH1 0x0 CALLVALUE PUSH1 0xC SLOAD PUSH2 0x7AA SWAP2 SWAP1 PUSH2 0x31BC JUMP JUMPDEST GT PUSH2 0x7C8 JUMPI PUSH1 0x0 PUSH1 0xC SSTORE PUSH2 0x7BE DUP3 DUP3 PUSH2 0x1E29 JUMP JUMPDEST PUSH1 0x0 PUSH1 0x9 SSTORE PUSH2 0x7DA JUMP JUMPDEST CALLVALUE PUSH1 0xC SLOAD PUSH2 0x7D6 SWAP2 SWAP1 PUSH2 0x31BC JUMP JUMPDEST PUSH1 0xC SSTORE JUMPDEST POP POP POP JUMP JUMPDEST PUSH1 0xD SLOAD DUP2 JUMP JUMPDEST PUSH1 0x8 SLOAD PUSH1 0x1 PUSH1 0xA0 SHL SWAP1 DIV PUSH1 0xFF AND DUP2 JUMP JUMPDEST PUSH1 0xA SLOAD PUSH1 0x1 PUSH1 0x1 PUSH1 0xA0 SHL SUB AND DUP2 JUMP JUMPDEST PUSH1 0x8 SLOAD PUSH1 0x40 DUP1 MLOAD DUP1 DUP3 ADD SWAP1 SWAP2 MSTORE PUSH1 0x5 DUP2 MSTORE PUSH5 0x4730363037 PUSH1 0xD8 SHL PUSH1 0x20 DUP3 ADD MSTORE SWAP1 PUSH1 0x1 PUSH1 0x1 PUSH1 0xA0 SHL SUB AND CALLER EQ PUSH2 0x84C JUMPI PUSH1 0x40 MLOAD PUSH3 0x461BCD PUSH1 0xE5 SHL DUP2 MSTORE PUSH1 0x4 ADD PUSH2 0x6CC SWAP2 SWAP1 PUSH2 0x304B JUMP JUMPDEST POP PUSH1 0x8 SLOAD PUSH2 0x863 SWAP1 PUSH1 0x1 PUSH1 0x1 PUSH1 0xA0 SHL SUB AND DUP3 PUSH2 0x1FDD JUMP JUMPDEST PUSH2 0x86C DUP3 PUSH2 0x20BE JUMP JUMPDEST POP POP JUMP JUMPDEST PUSH1 0x0 DUP2 DUP2 MSTORE PUSH1 0x20 DUP2 SWAP1 MSTORE PUSH1 0x40 SWAP1 KECCAK256 SLOAD DUP2 SWAP1 PUSH1 0x1 PUSH1 0x1 PUSH1 0xA0 SHL SUB AND CALLER DUP2 EQ DUP1 PUSH2 0x8BB JUMPI POP PUSH1 0x1 PUSH1 0x1 PUSH1 0xA0 SHL SUB DUP2 AND PUSH1 0x0 SWAP1 DUP2 MSTORE PUSH1 0x3 PUSH1 0x20 SWAP1 DUP2 MSTORE PUSH1 0x40 DUP1 DUP4 KECCAK256 CALLER DUP5 MSTORE SWAP1 SWAP2 MSTORE SWAP1 KECCAK256 SLOAD PUSH1 0xFF AND JUMPDEST PUSH1 0x40 MLOAD DUP1 PUSH1 0x40 ADD PUSH1 0x40 MSTORE DUP1 PUSH1 0x6 DUP2 MSTORE PUSH1 0x20 ADD PUSH6 0x4E3033303033 PUSH1 0xD0 SHL DUP2 MSTORE POP SWAP1 PUSH2 0x8F8 JUMPI PUSH1 0x40 MLOAD PUSH3 0x461BCD PUSH1 0xE5 SHL DUP2 MSTORE PUSH1 0x4 ADD PUSH2 0x6CC SWAP2 SWAP1 PUSH2 0x304B JUMP JUMPDEST POP PUSH1 0x65 PUSH1 0x9 SLOAD EQ ISZERO PUSH1 0x40 MLOAD DUP1 PUSH1 0x40 ADD PUSH1 0x40 MSTORE DUP1 PUSH1 0x5 DUP2 MSTORE PUSH1 0x20 ADD PUSH5 0x5630383039 PUSH1 0xD8 SHL DUP2 MSTORE POP SWAP1 PUSH2 0x93C JUMPI PUSH1 0x40 MLOAD PUSH3 0x461BCD PUSH1 0xE5 SHL DUP2 MSTORE PUSH1 0x4 ADD PUSH2 0x6CC SWAP2 SWAP1 PUSH2 0x304B JUMP JUMPDEST POP PUSH1 0x8 SLOAD PUSH1 0x40 DUP1 MLOAD DUP1 DUP3 ADD SWAP1 SWAP2 MSTORE PUSH1 0x5 DUP2 MSTORE PUSH5 0x23981B181B PUSH1 0xD9 SHL PUSH1 0x20 DUP3 ADD MSTORE SWAP1 PUSH1 0x1 PUSH1 0xA0 SHL SWAP1 DIV PUSH1 0xFF AND ISZERO ISZERO PUSH1 0x1 EQ PUSH2 0x989 JUMPI PUSH1 0x40 MLOAD PUSH3 0x461BCD PUSH1 0xE5 SHL DUP2 MSTORE PUSH1 0x4 ADD PUSH2 0x6CC SWAP2 SWAP1 PUSH2 0x304B JUMP JUMPDEST POP POP PUSH1 0x65 PUSH1 0x9 SSTORE POP POP JUMP JUMPDEST PUSH1 0x12 SLOAD PUSH1 0x40 DUP1 MLOAD DUP1 DUP3 ADD SWAP1 SWAP2 MSTORE PUSH1 0x5 DUP2 MSTORE PUSH5 0x483039303 PUSH1 0xDC SHL PUSH1 0x20 DUP3 ADD MSTORE SWAP1 PUSH1 0x1 PUSH1 0x1 PUSH1 0xA0 SHL SUB AND CALLER EQ PUSH2 0x9DC JUMPI PUSH1 0x40 MLOAD PUSH3 0x461BCD PUSH1 0xE5 SHL DUP2 MSTORE PUSH1 0x4 ADD PUSH2 0x6CC SWAP2 SWAP1 PUSH2 0x304B JUMP JUMPDEST POP PUSH1 0x1C SLOAD PUSH1 0x40 DUP1 MLOAD DUP1 DUP3 ADD SWAP1 SWAP2 MSTORE PUSH1 0x5 DUP2 MSTORE PUSH5 0x24181C981B PUSH1 0xD9 SHL PUSH1 0x20 DUP3 ADD MSTORE SWAP1 ISZERO PUSH2 0xA1B JUMPI PUSH1 0x40 MLOAD PUSH3 0x461BCD PUSH1 0xE5 SHL DUP2 MSTORE PUSH1 0x4 ADD PUSH2 0x6CC SWAP2 SWAP1 PUSH2 0x304B JUMP JUMPDEST POP PUSH1 0x6 SLOAD PUSH1 0x0 DUP5 DUP2 MSTORE PUSH1 0x20 DUP2 DUP2 MSTORE PUSH1 0x40 SWAP2 DUP3 SWAP1 KECCAK256 SLOAD DUP3 MLOAD DUP1 DUP5 ADD SWAP1 SWAP4 MSTORE PUSH1 0x5 DUP4 MSTORE PUSH5 0x5630383035 PUSH1 0xD8 SHL SWAP2 DUP4 ADD SWAP2 SWAP1 SWAP2 MSTORE SWAP1 SWAP2 PUSH1 0x1 PUSH1 0x1 PUSH1 0xA0 SHL SUB SWAP2 DUP3 AND SWAP2 AND EQ PUSH2 0xA79 JUMPI PUSH1 0x40 MLOAD PUSH3 0x461BCD PUSH1 0xE5 SHL DUP2 MSTORE PUSH1 0x4 ADD PUSH2 0x6CC SWAP2 SWAP1 PUSH2 0x304B JUMP JUMPDEST POP PUSH1 0x13 SLOAD DUP3 GT DUP1 ISZERO PUSH2 0xA8D JUMPI POP PUSH1 0x15 SLOAD DUP3 LT ISZERO JUMPDEST PUSH1 0x40 MLOAD DUP1 PUSH1 0x40 ADD PUSH1 0x40 MSTORE DUP1 PUSH1 0x5 DUP2 MSTORE PUSH1 0x20 ADD PUSH5 0x24181C9819 PUSH1 0xD9 SHL DUP2 MSTORE POP SWAP1 PUSH2 0xAC9 JUMPI PUSH1 0x40 MLOAD PUSH3 0x461BCD PUSH1 0xE5 SHL DUP2 MSTORE PUSH1 0x4 ADD PUSH2 0x6CC SWAP2 SWAP1 PUSH2 0x304B JUMP JUMPDEST POP PUSH2 0x1F4 PUSH1 0x1A SLOAD EQ PUSH1 0x40 MLOAD DUP1 PUSH1 0x40 ADD PUSH1 0x40 MSTORE DUP1 PUSH1 0x5 DUP2 MSTORE PUSH1 0x20 ADD PUSH5 0x4830393035 PUSH1 0xD8 SHL DUP2 MSTORE POP SWAP1 PUSH2 0xB0D JUMPI PUSH1 0x40 MLOAD PUSH3 0x461BCD PUSH1 0xE5 SHL DUP2 MSTORE PUSH1 0x4 ADD PUSH2 0x6CC SWAP2 SWAP1 PUSH2 0x304B JUMP JUMPDEST POP PUSH1 0x13 SLOAD PUSH1 0x1C SSTORE PUSH1 0x14 DUP1 SLOAD PUSH1 0x1D SWAP2 SWAP1 PUSH2 0xB25 SWAP1 PUSH2 0x31D3 JUMP JUMPDEST PUSH2 0xB30 SWAP3 SWAP2 SWAP1 PUSH2 0x2BA0 JUMP JUMPDEST POP PUSH1 0x13 DUP3 SWAP1 SSTORE DUP1 MLOAD PUSH2 0xB49 SWAP1 PUSH1 0x14 SWAP1 PUSH1 0x20 DUP5 ADD SWAP1 PUSH2 0x2C2B JUMP JUMPDEST POP PUSH1 0x15 SLOAD PUSH1 0x1E SSTORE PUSH1 0x16 DUP1 SLOAD PUSH1 0x1F SWAP2 SWAP1 PUSH2 0xB61 SWAP1 PUSH2 0x31D3 JUMP JUMPDEST PUSH2 0xB6C SWAP3 SWAP2 SWAP1 PUSH2 0x2BA0 JUMP JUMPDEST POP PUSH1 0x15 DUP3 SWAP1 SSTORE DUP1 MLOAD PUSH2 0xB85 SWAP1 PUSH1 0x16 SWAP1 PUSH1 0x20 DUP5 ADD SWAP1 PUSH2 0x2C2B JUMP JUMPDEST POP POP POP POP JUMP JUMPDEST PUSH1 0xC SLOAD DUP2 JUMP JUMPDEST PUSH1 0x19 DUP1 SLOAD PUSH2 0xB9E SWAP1 PUSH2 0x31D3 JUMP JUMPDEST DUP1 PUSH1 0x1F ADD PUSH1 0x20 DUP1 SWAP2 DIV MUL PUSH1 0x20 ADD PUSH1 0x40 MLOAD SWAP1 DUP2 ADD PUSH1 0x40 MSTORE DUP1 SWAP3 SWAP2 SWAP1 DUP2 DUP2 MSTORE PUSH1 0x20 ADD DUP3 DUP1 SLOAD PUSH2 0xBCA SWAP1 PUSH2 0x31D3 JUMP JUMPDEST DUP1 ISZERO PUSH2 0xC17 JUMPI DUP1 PUSH1 0x1F LT PUSH2 0xBEC JUMPI PUSH2 0x100 DUP1 DUP4 SLOAD DIV MUL DUP4 MSTORE SWAP2 PUSH1 0x20 ADD SWAP2 PUSH2 0xC17 JUMP JUMPDEST DUP3 ADD SWAP2 SWAP1 PUSH1 0x0 MSTORE PUSH1 0x20 PUSH1 0x0 KECCAK256 SWAP1 JUMPDEST DUP2 SLOAD DUP2 MSTORE SWAP1 PUSH1 0x1 ADD SWAP1 PUSH1 0x20 ADD DUP1 DUP4 GT PUSH2 0xBFA JUMPI DUP3 SWAP1 SUB PUSH1 0x1F AND DUP3 ADD SWAP2 JUMPDEST POP POP POP POP POP DUP2 JUMP JUMPDEST PUSH1 0xB SLOAD DUP2 JUMP JUMPDEST PUSH1 0x0 DUP3 DUP2 MSTORE PUSH1 0x20 DUP2 SWAP1 MSTORE PUSH1 0x40 SWAP1 KECCAK256 SLOAD DUP3 SWAP1 PUSH1 0x1 PUSH1 0x1 PUSH1 0xA0 SHL SUB AND CALLER DUP2 EQ DUP1 PUSH2 0xC70 JUMPI POP PUSH1 0x1 PUSH1 0x1 PUSH1 0xA0 SHL SUB DUP2 AND PUSH1 0x0 SWAP1 DUP2 MSTORE PUSH1 0x3 PUSH1 0x20 SWAP1 DUP2 MSTORE PUSH1 0x40 DUP1 DUP4 KECCAK256 CALLER DUP5 MSTORE SWAP1 SWAP2 MSTORE SWAP1 KECCAK256 SLOAD PUSH1 0xFF AND JUMPDEST PUSH1 0x40 MLOAD DUP1 PUSH1 0x40 ADD PUSH1 0x40 MSTORE DUP1 PUSH1 0x6 DUP2 MSTORE PUSH1 0x20 ADD PUSH6 0x4E3033303033 PUSH1 0xD0 SHL DUP2 MSTORE POP SWAP1 PUSH2 0xCAD JUMPI PUSH1 0x40 MLOAD PUSH3 0x461BCD PUSH1 0xE5 SHL DUP2 MSTORE PUSH1 0x4 ADD PUSH2 0x6CC SWAP2 SWAP1 PUSH2 0x304B JUMP JUMPDEST POP PUSH1 0x6 SLOAD PUSH1 0x0 DUP6 DUP2 MSTORE PUSH1 0x20 DUP2 DUP2 MSTORE PUSH1 0x40 SWAP2 DUP3 SWAP1 KECCAK256 SLOAD DUP3 MLOAD DUP1 DUP5 ADD SWAP1 SWAP4 MSTORE PUSH1 0x5 DUP4 MSTORE PUSH5 0x5630383035 PUSH1 0xD8 SHL SWAP2 DUP4 ADD SWAP2 SWAP1 SWAP2 MSTORE SWAP1 SWAP2 PUSH1 0x1 PUSH1 0x1 PUSH1 0xA0 SHL SUB SWAP2 DUP3 AND SWAP2 AND EQ PUSH2 0xD0B JUMPI PUSH1 0x40 MLOAD PUSH3 0x461BCD PUSH1 0xE5 SHL DUP2 MSTORE PUSH1 0x4 ADD PUSH2 0x6CC SWAP2 SWAP1 PUSH2 0x304B JUMP JUMPDEST POP PUSH1 0x12 SLOAD PUSH1 0x40 DUP1 MLOAD DUP1 DUP3 ADD SWAP1 SWAP2 MSTORE PUSH1 0x5 DUP2 MSTORE PUSH5 0x120C0E4C0D PUSH1 0xDA SHL PUSH1 0x20 DUP3 ADD MSTORE SWAP1 PUSH1 0x1 PUSH1 0x1 PUSH1 0xA0 SHL SUB AND PUSH2 0xD52 JUMPI PUSH1 0x40 MLOAD PUSH3 0x461BCD PUSH1 0xE5 SHL DUP2 MSTORE PUSH1 0x4 ADD PUSH2 0x6CC SWAP2 SWAP1 PUSH2 0x304B JUMP JUMPDEST POP PUSH1 0x0 PUSH1 0x1C SSTORE PUSH1 0x1 DUP4 ISZERO ISZERO EQ ISZERO PUSH2 0xEA4 JUMPI PUSH1 0x12 DUP1 SLOAD PUSH1 0x1 PUSH1 0x1 PUSH1 0xA0 SHL SUB NOT AND SWAP1 SSTORE PUSH1 0x40 DUP1 MLOAD PUSH1 0x20 DUP2 ADD SWAP2 DUP3 SWAP1 MSTORE PUSH1 0x0 SWAP1 DUP2 SWAP1 MSTORE PUSH2 0xD91 SWAP2 PUSH1 0x1D SWAP2 PUSH2 0x2C2B JUMP JUMPDEST POP PUSH1 0x0 PUSH1 0x9 SSTORE PUSH1 0x12 SLOAD PUSH1 0x15 SLOAD PUSH1 0x40 MLOAD PUSH1 0x1 PUSH1 0x1 PUSH1 0xA0 SHL SUB SWAP1 SWAP3 AND SWAP2 PUSH32 0x9A54DFD33EF37826A325F30B78B24A059EBFA1C1A5B27E39ED19D55CDD12D5C1 SWAP2 PUSH2 0xDDA SWAP2 PUSH1 0x16 SWAP1 PUSH2 0x30D8 JUMP JUMPDEST PUSH1 0x40 MLOAD DUP1 SWAP2 SUB SWAP1 LOG2 PUSH2 0x1F4 PUSH1 0x1A SLOAD EQ ISZERO PUSH2 0xE3A JUMPI PUSH1 0x12 SLOAD PUSH1 0x13 SLOAD PUSH1 0x40 MLOAD PUSH1 0x1 PUSH1 0x1 PUSH1 0xA0 SHL SUB SWAP1 SWAP3 AND SWAP2 PUSH32 0x43EFF320782095F8E442F3697650E8AC7CF593F080B2734B803697C135085A1A SWAP2 PUSH2 0xE31 SWAP2 PUSH1 0x14 SWAP1 PUSH2 0x30D8 JUMP JUMPDEST PUSH1 0x40 MLOAD DUP1 SWAP2 SUB SWAP1 LOG2 JUMPDEST PUSH2 0x1F5 PUSH1 0x1A SLOAD EQ ISZERO PUSH2 0xE9F JUMPI PUSH1 0x12 SLOAD PUSH1 0x15 SLOAD PUSH1 0x40 MLOAD PUSH1 0x1 PUSH1 0x1 PUSH1 0xA0 SHL SUB SWAP1 SWAP3 AND SWAP2 PUSH32 0x1B783EE74C26E7FED6A1AE363B8FDA232FD6A2102341C671E89974CC82919278 SWAP2 PUSH2 0xE89 SWAP2 PUSH1 0x14 SWAP1 PUSH2 0x30D8 JUMP JUMPDEST PUSH1 0x40 MLOAD DUP1 SWAP2 SUB SWAP1 LOG2 PUSH1 0x18 DUP1 SLOAD PUSH1 0xFF NOT AND PUSH1 0x1 OR SWAP1 SSTORE JUMPDEST PUSH2 0xB85 JUMP JUMPDEST PUSH1 0x1F PUSH1 0x16 SWAP1 DUP1 SLOAD PUSH2 0xEB4 SWAP1 PUSH2 0x31D3 JUMP JUMPDEST PUSH2 0xEBF SWAP3 SWAP2 SWAP1 PUSH2 0x2BA0 JUMP JUMPDEST POP PUSH1 0x1C SLOAD PUSH1 0x15 SSTORE PUSH1 0x1A SLOAD PUSH2 0x1F4 EQ ISZERO PUSH2 0xEF6 JUMPI PUSH1 0x1C SLOAD PUSH1 0x13 SSTORE PUSH1 0x1D DUP1 SLOAD PUSH1 0x14 SWAP2 SWAP1 PUSH2 0xEE9 SWAP1 PUSH2 0x31D3 JUMP JUMPDEST PUSH2 0xEF4 SWAP3 SWAP2 SWAP1 PUSH2 0x2BA0 JUMP JUMPDEST POP JUMPDEST PUSH2 0x1F5 PUSH1 0x1A SLOAD EQ ISZERO PUSH2 0xB85 JUMPI PUSH1 0x1D PUSH1 0x19 SWAP1 DUP1 SLOAD PUSH2 0xF12 SWAP1 PUSH2 0x31D3 JUMP JUMPDEST PUSH2 0xF1D SWAP3 SWAP2 SWAP1 PUSH2 0x2BA0 JUMP JUMPDEST POP POP POP POP POP JUMP JUMPDEST PUSH1 0x16 DUP1 SLOAD PUSH2 0xB9E SWAP1 PUSH2 0x31D3 JUMP JUMPDEST PUSH1 0x0 DUP2 DUP2 MSTORE PUSH1 0x20 DUP2 DUP2 MSTORE PUSH1 0x40 SWAP2 DUP3 SWAP1 KECCAK256 SLOAD DUP3 MLOAD DUP1 DUP5 ADD SWAP1 SWAP4 MSTORE PUSH1 0x6 DUP4 MSTORE PUSH6 0x271819981819 PUSH1 0xD1 SHL SWAP2 DUP4 ADD SWAP2 SWAP1 SWAP2 MSTORE PUSH1 0x1 PUSH1 0x1 PUSH1 0xA0 SHL SUB AND SWAP1 DUP2 PUSH2 0xF87 JUMPI PUSH1 0x40 MLOAD PUSH3 0x461BCD PUSH1 0xE5 SHL DUP2 MSTORE PUSH1 0x4 ADD PUSH2 0x6CC SWAP2 SWAP1 PUSH2 0x304B JUMP JUMPDEST POP SWAP2 SWAP1 POP JUMP JUMPDEST PUSH1 0x12 SLOAD PUSH1 0x1 PUSH1 0x1 PUSH1 0xA0 SHL SUB AND DUP2 JUMP JUMPDEST PUSH1 0xA SLOAD PUSH1 0x40 DUP1 MLOAD DUP1 DUP3 ADD SWAP1 SWAP2 MSTORE PUSH1 0x1A DUP2 MSTORE PUSH32 0x4E4F5420455845435554454420425920474F5645524E4D454E54000000000000 PUSH1 0x20 DUP3 ADD MSTORE SWAP1 PUSH1 0x1 PUSH1 0x1 PUSH1 0xA0 SHL SUB AND CALLER EQ PUSH2 0xFFC JUMPI PUSH1 0x40 MLOAD PUSH3 0x461BCD PUSH1 0xE5 SHL DUP2 MSTORE PUSH1 0x4 ADD PUSH2 0x6CC SWAP2 SWAP1 PUSH2 0x304B JUMP JUMPDEST POP PUSH2 0x1006 DUP2 PUSH2 0x1DD8 JUMP JUMPDEST PUSH1 0x40 DUP1 MLOAD DUP1 DUP3 ADD SWAP1 SWAP2 MSTORE PUSH1 0x5 DUP2 MSTORE PUSH5 0x4730363035 PUSH1 0xD8 SHL PUSH1 0x20 DUP3 ADD MSTORE SWAP1 PUSH2 0x1040 JUMPI PUSH1 0x40 MLOAD PUSH3 0x461BCD PUSH1 0xE5 SHL DUP2 MSTORE PUSH1 0x4 ADD PUSH2 0x6CC SWAP2 SWAP1 PUSH2 0x304B JUMP JUMPDEST POP PUSH1 0x0 PUSH1 0x9 SLOAD GT PUSH1 0x40 MLOAD DUP1 PUSH1 0x40 ADD PUSH1 0x40 MSTORE DUP1 PUSH1 0x5 DUP2 MSTORE PUSH1 0x20 ADD PUSH5 0x11CC0D8C0D PUSH1 0xDA SHL DUP2 MSTORE POP SWAP1 PUSH2 0x1083 JUMPI PUSH1 0x40 MLOAD PUSH3 0x461BCD PUSH1 0xE5 SHL DUP2 MSTORE PUSH1 0x4 ADD PUSH2 0x6CC SWAP2 SWAP1 PUSH2 0x304B JUMP JUMPDEST POP DUP1 PUSH1 0x9 SLOAD EQ PUSH1 0x40 MLOAD DUP1 PUSH1 0x40 ADD PUSH1 0x40 MSTORE DUP1 PUSH1 0x5 DUP2 MSTORE PUSH1 0x20 ADD PUSH5 0x5630383037 PUSH1 0xD8 SHL DUP2 MSTORE POP SWAP1 PUSH2 0x10C5 JUMPI PUSH1 0x40 MLOAD PUSH3 0x461BCD PUSH1 0xE5 SHL DUP2 MSTORE PUSH1 0x4 ADD PUSH2 0x6CC SWAP2 SWAP1 PUSH2 0x304B JUMP JUMPDEST POP PUSH2 0x10D0 DUP2 DUP4 PUSH2 0x2146 JUMP JUMPDEST POP POP PUSH1 0xB DUP2 SWAP1 SSTORE PUSH1 0xC SSTORE JUMP JUMPDEST PUSH1 0x8 SLOAD PUSH1 0x1 PUSH1 0x1 PUSH1 0xA0 SHL SUB AND DUP2 JUMP JUMPDEST PUSH1 0xE SLOAD DUP2 JUMP JUMPDEST PUSH1 0x6 SLOAD PUSH1 0x1 PUSH1 0x1 PUSH1 0xA0 SHL SUB AND DUP2 JUMP JUMPDEST PUSH1 0xF DUP1 SLOAD PUSH2 0xB9E SWAP1 PUSH2 0x31D3 JUMP JUMPDEST PUSH1 0x9 SLOAD DUP2 JUMP JUMPDEST PUSH1 0x60 PUSH1 0x5 DUP1 SLOAD PUSH2 0x606 SWAP1 PUSH2 0x31D3 JUMP JUMPDEST PUSH1 0x0 DUP3 DUP2 MSTORE PUSH1 0x20 DUP2 SWAP1 MSTORE PUSH1 0x40 SWAP1 KECCAK256 SLOAD DUP3 SWAP1 PUSH1 0x1 PUSH1 0x1 PUSH1 0xA0 SHL SUB AND CALLER DUP2 EQ DUP1 PUSH2 0x116D JUMPI POP PUSH1 0x1 PUSH1 0x1 PUSH1 0xA0 SHL SUB DUP2 AND PUSH1 0x0 SWAP1 DUP2 MSTORE PUSH1 0x3 PUSH1 0x20 SWAP1 DUP2 MSTORE PUSH1 0x40 DUP1 DUP4 KECCAK256 CALLER DUP5 MSTORE SWAP1 SWAP2 MSTORE SWAP1 KECCAK256 SLOAD PUSH1 0xFF AND JUMPDEST PUSH1 0x40 MLOAD DUP1 PUSH1 0x40 ADD PUSH1 0x40 MSTORE DUP1 PUSH1 0x6 DUP2 MSTORE PUSH1 0x20 ADD PUSH6 0x4E3033303033 PUSH1 0xD0 SHL DUP2 MSTORE POP SWAP1 PUSH2 0x11AA JUMPI PUSH1 0x40 MLOAD PUSH3 0x461BCD PUSH1 0xE5 SHL DUP2 MSTORE PUSH1 0x4 ADD PUSH2 0x6CC SWAP2 SWAP1 PUSH2 0x304B JUMP JUMPDEST POP PUSH1 0x6 SLOAD PUSH1 0x0 DUP6 DUP2 MSTORE PUSH1 0x20 DUP2 DUP2 MSTORE PUSH1 0x40 SWAP2 DUP3 SWAP1 KECCAK256 SLOAD DUP3 MLOAD DUP1 DUP5 ADD SWAP1 SWAP4 MSTORE PUSH1 0x5 DUP4 MSTORE PUSH5 0x5630383035 PUSH1 0xD8 SHL SWAP2 DUP4 ADD SWAP2 SWAP1 SWAP2 MSTORE SWAP1 SWAP2 PUSH1 0x1 PUSH1 0x1 PUSH1 0xA0 SHL SUB SWAP2 DUP3 AND SWAP2 AND EQ PUSH2 0x1208 JUMPI PUSH1 0x40 MLOAD PUSH3 0x461BCD PUSH1 0xE5 SHL DUP2 MSTORE PUSH1 0x4 ADD PUSH2 0x6CC SWAP2 SWAP1 PUSH2 0x304B JUMP JUMPDEST POP PUSH1 0x8 SLOAD PUSH1 0x40 DUP1 MLOAD DUP1 DUP3 ADD SWAP1 SWAP2 MSTORE PUSH1 0x5 DUP2 MSTORE PUSH5 0x563038313 PUSH1 0xDC SHL PUSH1 0x20 DUP3 ADD MSTORE SWAP1 PUSH1 0x1 PUSH1 0xA0 SHL SWAP1 DIV PUSH1 0xFF AND ISZERO PUSH2 0x1251 JUMPI PUSH1 0x40 MLOAD PUSH3 0x461BCD PUSH1 0xE5 SHL DUP2 MSTORE PUSH1 0x4 ADD PUSH2 0x6CC SWAP2 SWAP1 PUSH2 0x304B JUMP JUMPDEST POP PUSH1 0x9 SLOAD PUSH1 0x40 DUP1 MLOAD DUP1 DUP3 ADD SWAP1 SWAP2 MSTORE PUSH1 0x5 DUP2 MSTORE PUSH5 0x11CC0D8C0D PUSH1 0xDA SHL PUSH1 0x20 DUP3 ADD MSTORE SWAP1 ISZERO PUSH2 0x1290 JUMPI PUSH1 0x40 MLOAD PUSH3 0x461BCD PUSH1 0xE5 SHL DUP2 MSTORE PUSH1 0x4 ADD PUSH2 0x6CC SWAP2 SWAP1 PUSH2 0x304B JUMP JUMPDEST POP PUSH1 0x8 DUP1 SLOAD PUSH1 0xFF PUSH1 0xA8 SHL NOT PUSH1 0xFF PUSH1 0xA0 SHL NOT SWAP1 SWAP2 AND PUSH1 0x1 PUSH1 0xA0 SHL OR AND SWAP1 SSTORE PUSH1 0x40 MLOAD PUSH32 0xDFAEFDAF6C3454D6AA0AD3CB0EF14582EBCB3CF5FE7B7762CB912636DE70BEF0 SWAP1 PUSH2 0x12DF SWAP1 CALLER SWAP1 DUP7 SWAP1 PUSH2 0x3003 JUMP JUMPDEST PUSH1 0x40 MLOAD DUP1 SWAP2 SUB SWAP1 LOG1 POP POP POP POP JUMP JUMPDEST PUSH1 0x7 SLOAD PUSH1 0x1 PUSH1 0x1 PUSH1 0xA0 SHL SUB AND DUP2 JUMP JUMPDEST PUSH1 0x14 DUP1 SLOAD PUSH2 0xB9E SWAP1 PUSH2 0x31D3 JUMP JUMPDEST PUSH1 0x15 SLOAD DUP2 JUMP JUMPDEST PUSH1 0x12 SLOAD PUSH1 0x40 DUP1 MLOAD DUP1 DUP3 ADD SWAP1 SWAP2 MSTORE PUSH1 0x5 DUP2 MSTORE PUSH5 0x483039303 PUSH1 0xDC SHL PUSH1 0x20 DUP3 ADD MSTORE SWAP1 PUSH1 0x1 PUSH1 0x1 PUSH1 0xA0 SHL SUB AND CALLER EQ PUSH2 0x1357 JUMPI PUSH1 0x40 MLOAD PUSH3 0x461BCD PUSH1 0xE5 SHL DUP2 MSTORE PUSH1 0x4 ADD PUSH2 0x6CC SWAP2 SWAP1 PUSH2 0x304B JUMP JUMPDEST POP PUSH1 0x1C SLOAD PUSH1 0x40 DUP1 MLOAD DUP1 DUP3 ADD SWAP1 SWAP2 MSTORE PUSH1 0x5 DUP2 MSTORE PUSH5 0x24181C981B PUSH1 0xD9 SHL PUSH1 0x20 DUP3 ADD MSTORE SWAP1 ISZERO PUSH2 0x1396 JUMPI PUSH1 0x40 MLOAD PUSH3 0x461BCD PUSH1 0xE5 SHL DUP2 MSTORE PUSH1 0x4 ADD PUSH2 0x6CC SWAP2 SWAP1 PUSH2 0x304B JUMP JUMPDEST POP PUSH1 0x6 SLOAD PUSH1 0x0 DUP5 DUP2 MSTORE PUSH1 0x20 DUP2 DUP2 MSTORE PUSH1 0x40 SWAP2 DUP3 SWAP1 KECCAK256 SLOAD DUP3 MLOAD DUP1 DUP5 ADD SWAP1 SWAP4 MSTORE PUSH1 0x5 DUP4 MSTORE PUSH5 0x5630383035 PUSH1 0xD8 SHL SWAP2 DUP4 ADD SWAP2 SWAP1 SWAP2 MSTORE SWAP1 SWAP2 PUSH1 0x1 PUSH1 0x1 PUSH1 0xA0 SHL SUB SWAP2 DUP3 AND SWAP2 AND EQ PUSH2 0x13F4 JUMPI PUSH1 0x40 MLOAD PUSH3 0x461BCD PUSH1 0xE5 SHL DUP2 MSTORE PUSH1 0x4 ADD PUSH2 0x6CC SWAP2 SWAP1 PUSH2 0x304B JUMP JUMPDEST POP PUSH2 0x1F5 PUSH1 0x1A SLOAD EQ PUSH1 0x40 MLOAD DUP1 PUSH1 0x40 ADD PUSH1 0x40 MSTORE DUP1 PUSH1 0x5 DUP2 MSTORE PUSH1 0x20 ADD PUSH5 0x4830393035 PUSH1 0xD8 SHL DUP2 MSTORE POP SWAP1 PUSH2 0x1438 JUMPI PUSH1 0x40 MLOAD PUSH3 0x461BCD PUSH1 0xE5 SHL DUP2 MSTORE PUSH1 0x4 ADD PUSH2 0x6CC SWAP2 SWAP1 PUSH2 0x304B JUMP JUMPDEST POP PUSH1 0x1 PUSH1 0x1C SSTORE PUSH1 0x19 DUP1 SLOAD PUSH1 0x1D SWAP2 SWAP1 PUSH2 0x144F SWAP1 PUSH2 0x31D3 JUMP JUMPDEST PUSH2 0x145A SWAP3 SWAP2 SWAP1 PUSH2 0x2BA0 JUMP JUMPDEST POP DUP1 MLOAD PUSH2 0xB6C SWAP1 PUSH1 0x19 SWAP1 PUSH1 0x20 DUP5 ADD SWAP1 PUSH2 0x2C2B JUMP JUMPDEST PUSH1 0xA SLOAD PUSH1 0x40 DUP1 MLOAD DUP1 DUP3 ADD SWAP1 SWAP2 MSTORE PUSH1 0x5 DUP2 MSTORE PUSH5 0xAC6070607 PUSH1 0xDB SHL PUSH1 0x20 DUP3 ADD MSTORE SWAP1 PUSH1 0x1 PUSH1 0xA0 SHL SWAP1 DIV PUSH1 0xFF AND ISZERO PUSH2 0x14B6 JUMPI PUSH1 0x40 MLOAD PUSH3 0x461BCD PUSH1 0xE5 SHL DUP2 MSTORE PUSH1 0x4 ADD PUSH2 0x6CC SWAP2 SWAP1 PUSH2 0x304B JUMP JUMPDEST POP PUSH1 0x7 SLOAD PUSH1 0x40 DUP1 MLOAD DUP1 DUP3 ADD SWAP1 SWAP2 MSTORE PUSH1 0x5 DUP2 MSTORE PUSH5 0x563038303 PUSH1 0xDC SHL PUSH1 0x20 DUP3 ADD MSTORE SWAP1 PUSH1 0x1 PUSH1 0x1 PUSH1 0xA0 SHL SUB AND CALLER EQ PUSH2 0x14FF JUMPI PUSH1 0x40 MLOAD PUSH3 0x461BCD PUSH1 0xE5 SHL DUP2 MSTORE PUSH1 0x4 ADD PUSH2 0x6CC SWAP2 SWAP1 PUSH2 0x304B JUMP JUMPDEST POP PUSH1 0x0 DUP2 DUP2 MSTORE PUSH1 0x20 DUP2 DUP2 MSTORE PUSH1 0x40 SWAP2 DUP3 SWAP1 KECCAK256 SLOAD DUP3 MLOAD DUP1 DUP5 ADD SWAP1 SWAP4 MSTORE PUSH1 0x5 DUP4 MSTORE PUSH5 0x5630383031 PUSH1 0xD8 SHL SWAP2 DUP4 ADD SWAP2 SWAP1 SWAP2 MSTORE PUSH1 0x1 PUSH1 0x1 PUSH1 0xA0 SHL SUB DUP5 DUP2 AND SWAP2 AND EQ PUSH2 0x1558 JUMPI PUSH1 0x40 MLOAD PUSH3 0x461BCD PUSH1 0xE5 SHL DUP2 MSTORE PUSH1 0x4 ADD PUSH2 0x6CC SWAP2 SWAP1 PUSH2 0x304B JUMP JUMPDEST POP PUSH1 0xC8 PUSH1 0x9 SLOAD EQ PUSH1 0x40 MLOAD DUP1 PUSH1 0x40 ADD PUSH1 0x40 MSTORE DUP1 PUSH1 0x5 DUP2 MSTORE PUSH1 0x20 ADD PUSH5 0x5630383037 PUSH1 0xD8 SHL DUP2 MSTORE POP SWAP1 PUSH2 0x159B JUMPI PUSH1 0x40 MLOAD PUSH3 0x461BCD PUSH1 0xE5 SHL DUP2 MSTORE PUSH1 0x4 ADD PUSH2 0x6CC SWAP2 SWAP1 PUSH2 0x304B JUMP JUMPDEST POP PUSH1 0x40 MLOAD PUSH1 0x1 PUSH1 0x1 PUSH1 0xA0 SHL SUB DUP4 AND SWAP1 CALLVALUE DUP1 ISZERO PUSH2 0x8FC MUL SWAP2 PUSH1 0x0 DUP2 DUP2 DUP2 DUP6 DUP9 DUP9 CALL SWAP4 POP POP POP POP ISZERO DUP1 ISZERO PUSH2 0x15D1 JUMPI RETURNDATASIZE PUSH1 0x0 DUP1 RETURNDATACOPY RETURNDATASIZE PUSH1 0x0 REVERT JUMPDEST POP PUSH1 0x11 DUP1 SLOAD PUSH1 0x1 PUSH1 0x1 PUSH1 0xA0 SHL SUB NOT AND PUSH1 0x1 PUSH1 0x1 PUSH1 0xA0 SHL SUB DUP5 AND OR SWAP1 SSTORE PUSH1 0xE SLOAD PUSH1 0x0 SWAP1 PUSH2 0x15FE SWAP1 CALLVALUE SWAP1 PUSH2 0x31BC JUMP JUMPDEST GT PUSH2 0x16C1 JUMPI PUSH1 0x0 PUSH1 0xE SSTORE PUSH1 0xD SLOAD PUSH1 0x40 DUP1 MLOAD DUP1 DUP3 ADD DUP3 MSTORE PUSH1 0x5 DUP2 MSTORE PUSH5 0x2B181C1819 PUSH1 0xD9 SHL PUSH1 0x20 DUP3 ADD MSTORE SWAP1 MLOAD CALLER SWAP3 PUSH1 0x0 DUP1 MLOAD PUSH1 0x20 PUSH2 0x324D DUP4 CODECOPY DUP2 MLOAD SWAP2 MSTORE SWAP3 PUSH2 0x1643 SWAP3 PUSH2 0x3032 JUMP JUMPDEST PUSH1 0x40 MLOAD DUP1 SWAP2 SUB SWAP1 LOG2 PUSH2 0x1666 DUP3 CALLER DUP4 PUSH1 0x40 MLOAD DUP1 PUSH1 0x20 ADD PUSH1 0x40 MSTORE DUP1 PUSH1 0x0 DUP2 MSTORE POP PUSH2 0x227F JUMP JUMPDEST PUSH1 0x6 SLOAD PUSH1 0x40 DUP1 MLOAD DUP1 DUP3 ADD DUP3 MSTORE PUSH1 0x5 DUP2 MSTORE PUSH5 0x5630383033 PUSH1 0xD8 SHL PUSH1 0x20 DUP3 ADD MSTORE SWAP1 MLOAD PUSH1 0x1 PUSH1 0x1 PUSH1 0xA0 SHL SUB SWAP1 SWAP3 AND SWAP2 PUSH1 0x0 DUP1 MLOAD PUSH1 0x20 PUSH2 0x324D DUP4 CODECOPY DUP2 MLOAD SWAP2 MSTORE SWAP2 PUSH2 0x16AF SWAP2 PUSH1 0x0 SWAP2 SWAP1 PUSH2 0x3032 JUMP JUMPDEST PUSH1 0x40 MLOAD DUP1 SWAP2 SUB SWAP1 LOG2 PUSH1 0x0 PUSH1 0x9 SSTORE PUSH2 0x86C JUMP JUMPDEST CALLVALUE PUSH1 0xE SLOAD PUSH2 0x16CF SWAP2 SWAP1 PUSH2 0x31BC JUMP JUMPDEST PUSH1 0xE SSTORE POP POP JUMP JUMPDEST PUSH1 0x0 DUP3 DUP2 MSTORE PUSH1 0x20 DUP2 SWAP1 MSTORE PUSH1 0x40 SWAP1 KECCAK256 SLOAD DUP3 SWAP1 PUSH1 0x1 PUSH1 0x1 PUSH1 0xA0 SHL SUB AND CALLER DUP2 EQ DUP1 PUSH2 0x1721 JUMPI POP PUSH1 0x1 PUSH1 0x1 PUSH1 0xA0 SHL SUB DUP2 AND PUSH1 0x0 SWAP1 DUP2 MSTORE PUSH1 0x3 PUSH1 0x20 SWAP1 DUP2 MSTORE PUSH1 0x40 DUP1 DUP4 KECCAK256 CALLER DUP5 MSTORE SWAP1 SWAP2 MSTORE SWAP1 KECCAK256 SLOAD PUSH1 0xFF AND JUMPDEST PUSH1 0x40 MLOAD DUP1 PUSH1 0x40 ADD PUSH1 0x40 MSTORE DUP1 PUSH1 0x6 DUP2 MSTORE PUSH1 0x20 ADD PUSH6 0x4E3033303033 PUSH1 0xD0 SHL DUP2 MSTORE POP SWAP1 PUSH2 0x175E JUMPI PUSH1 0x40 MLOAD PUSH3 0x461BCD PUSH1 0xE5 SHL DUP2 MSTORE PUSH1 0x4 ADD PUSH2 0x6CC SWAP2 SWAP1 PUSH2 0x304B JUMP JUMPDEST POP PUSH1 0x6 SLOAD PUSH1 0x0 DUP6 DUP2 MSTORE PUSH1 0x20 DUP2 DUP2 MSTORE PUSH1 0x40 SWAP2 DUP3 SWAP1 KECCAK256 SLOAD DUP3 MLOAD DUP1 DUP5 ADD SWAP1 SWAP4 MSTORE PUSH1 0x5 DUP4 MSTORE PUSH5 0x5630383035 PUSH1 0xD8 SHL SWAP2 DUP4 ADD SWAP2 SWAP1 SWAP2 MSTORE SWAP1 SWAP2 PUSH1 0x1 PUSH1 0x1 PUSH1 0xA0 SHL SUB SWAP2 DUP3 AND SWAP2 AND EQ PUSH2 0x17BC JUMPI PUSH1 0x40 MLOAD PUSH3 0x461BCD PUSH1 0xE5 SHL DUP2 MSTORE PUSH1 0x4 ADD PUSH2 0x6CC SWAP2 SWAP1 PUSH2 0x304B JUMP JUMPDEST POP PUSH1 0x1B SLOAD PUSH1 0x40 DUP1 MLOAD DUP1 DUP3 ADD SWAP1 SWAP2 MSTORE PUSH1 0x5 DUP2 MSTORE PUSH5 0x563038313 PUSH1 0xDC SHL PUSH1 0x20 DUP3 ADD MSTORE SWAP1 PUSH1 0xFF AND ISZERO PUSH2 0x17FE JUMPI PUSH1 0x40 MLOAD PUSH3 0x461BCD PUSH1 0xE5 SHL DUP2 MSTORE PUSH1 0x4 ADD PUSH2 0x6CC SWAP2 SWAP1 PUSH2 0x304B JUMP JUMPDEST POP PUSH1 0x9 SLOAD PUSH1 0x40 DUP1 MLOAD DUP1 DUP3 ADD SWAP1 SWAP2 MSTORE PUSH1 0x5 DUP2 MSTORE PUSH5 0x11CC0D8C0D PUSH1 0xDA SHL PUSH1 0x20 DUP3 ADD MSTORE SWAP1 ISZERO PUSH2 0x183D JUMPI PUSH1 0x40 MLOAD PUSH3 0x461BCD PUSH1 0xE5 SHL DUP2 MSTORE PUSH1 0x4 ADD PUSH2 0x6CC SWAP2 SWAP1 PUSH2 0x304B JUMP JUMPDEST POP PUSH1 0x1B DUP1 SLOAD PUSH1 0xFF NOT AND PUSH1 0x1 OR SWAP1 SSTORE PUSH1 0x8 DUP1 SLOAD PUSH1 0xFF PUSH1 0xA8 SHL NOT AND SWAP1 SSTORE PUSH2 0x12C PUSH1 0x9 SSTORE DUP3 MLOAD PUSH2 0xF1D SWAP1 PUSH1 0xF SWAP1 PUSH1 0x20 DUP7 ADD SWAP1 PUSH2 0x2C2B JUMP JUMPDEST PUSH1 0x8 SLOAD PUSH1 0x1 PUSH1 0xA8 SHL SWAP1 DIV PUSH1 0xFF AND DUP2 JUMP JUMPDEST PUSH1 0x18 SLOAD PUSH1 0xFF AND DUP2 JUMP JUMPDEST PUSH1 0x0 DUP2 DUP2 MSTORE PUSH1 0x20 DUP2 SWAP1 MSTORE PUSH1 0x40 SWAP1 KECCAK256 SLOAD DUP2 SWAP1 PUSH1 0x1 PUSH1 0x1 PUSH1 0xA0 SHL SUB AND CALLER DUP2 EQ DUP1 PUSH2 0x18D5 JUMPI POP PUSH1 0x1 PUSH1 0x1 PUSH1 0xA0 SHL SUB DUP2 AND PUSH1 0x0 SWAP1 DUP2 MSTORE PUSH1 0x3 PUSH1 0x20 SWAP1 DUP2 MSTORE PUSH1 0x40 DUP1 DUP4 KECCAK256 CALLER DUP5 MSTORE SWAP1 SWAP2 MSTORE SWAP1 KECCAK256 SLOAD PUSH1 0xFF AND JUMPDEST PUSH1 0x40 MLOAD DUP1 PUSH1 0x40 ADD PUSH1 0x40 MSTORE DUP1 PUSH1 0x6 DUP2 MSTORE PUSH1 0x20 ADD PUSH6 0x4E3033303033 PUSH1 0xD0 SHL DUP2 MSTORE POP SWAP1 PUSH2 0x1912 JUMPI PUSH1 0x40 MLOAD PUSH3 0x461BCD PUSH1 0xE5 SHL DUP2 MSTORE PUSH1 0x4 ADD PUSH2 0x6CC SWAP2 SWAP1 PUSH2 0x304B JUMP JUMPDEST POP PUSH1 0x8 SLOAD PUSH1 0x40 DUP1 MLOAD DUP1 DUP3 ADD SWAP1 SWAP2 MSTORE PUSH1 0x5 DUP2 MSTORE PUSH5 0x158C0E0C0D PUSH1 0xDA SHL PUSH1 0x20 DUP3 ADD MSTORE SWAP1 PUSH1 0x1 PUSH1 0xA8 SHL SWAP1 DIV PUSH1 0xFF AND ISZERO ISZERO PUSH1 0x1 EQ PUSH2 0x195F JUMPI PUSH1 0x40 MLOAD PUSH3 0x461BCD PUSH1 0xE5 SHL DUP2 MSTORE PUSH1 0x4 ADD PUSH2 0x6CC SWAP2 SWAP1 PUSH2 0x304B JUMP JUMPDEST POP PUSH1 0x6 SLOAD PUSH1 0x0 DUP5 DUP2 MSTORE PUSH1 0x20 DUP2 DUP2 MSTORE PUSH1 0x40 SWAP2 DUP3 SWAP1 KECCAK256 SLOAD DUP3 MLOAD DUP1 DUP5 ADD SWAP1 SWAP4 MSTORE PUSH1 0x5 DUP4 MSTORE PUSH5 0x5630383035 PUSH1 0xD8 SHL SWAP2 DUP4 ADD SWAP2 SWAP1 SWAP2 MSTORE SWAP1 SWAP2 PUSH1 0x1 PUSH1 0x1 PUSH1 0xA0 SHL SUB SWAP2 DUP3 AND SWAP2 AND EQ ISZERO PUSH2 0x19BE JUMPI PUSH1 0x40 MLOAD PUSH3 0x461BCD PUSH1 0xE5 SHL DUP2 MSTORE PUSH1 0x4 ADD PUSH2 0x6CC SWAP2 SWAP1 PUSH2 0x304B JUMP JUMPDEST POP POP PUSH1 0xA DUP1 SLOAD PUSH1 0xFF PUSH1 0xA0 SHL NOT AND PUSH1 0x1 PUSH1 0xA0 SHL OR SWAP1 SSTORE POP POP PUSH1 0x64 PUSH1 0x9 SSTORE JUMP JUMPDEST PUSH1 0x0 DUP3 DUP2 MSTORE PUSH1 0x20 DUP2 SWAP1 MSTORE PUSH1 0x40 SWAP1 KECCAK256 SLOAD DUP3 SWAP1 PUSH1 0x1 PUSH1 0x1 PUSH1 0xA0 SHL SUB AND CALLER DUP2 EQ DUP1 PUSH2 0x1A27 JUMPI POP PUSH1 0x1 PUSH1 0x1 PUSH1 0xA0 SHL SUB DUP2 AND PUSH1 0x0 SWAP1 DUP2 MSTORE PUSH1 0x3 PUSH1 0x20 SWAP1 DUP2 MSTORE PUSH1 0x40 DUP1 DUP4 KECCAK256 CALLER DUP5 MSTORE SWAP1 SWAP2 MSTORE SWAP1 KECCAK256 SLOAD PUSH1 0xFF AND JUMPDEST PUSH1 0x40 MLOAD DUP1 PUSH1 0x40 ADD PUSH1 0x40 MSTORE DUP1 PUSH1 0x6 DUP2 MSTORE PUSH1 0x20 ADD PUSH6 0x4E3033303033 PUSH1 0xD0 SHL DUP2 MSTORE POP SWAP1 PUSH2 0x1A64 JUMPI PUSH1 0x40 MLOAD PUSH3 0x461BCD PUSH1 0xE5 SHL DUP2 MSTORE PUSH1 0x4 ADD PUSH2 0x6CC SWAP2 SWAP1 PUSH2 0x304B JUMP JUMPDEST POP PUSH1 0x8 SLOAD PUSH1 0x40 DUP1 MLOAD DUP1 DUP3 ADD SWAP1 SWAP2 MSTORE PUSH1 0x5 DUP2 MSTORE PUSH5 0x11CC0D8C0D PUSH1 0xDA SHL PUSH1 0x20 DUP3 ADD MSTORE SWAP1 PUSH1 0x1 PUSH1 0xA8 SHL SWAP1 DIV PUSH1 0xFF AND ISZERO ISZERO PUSH1 0x1 EQ PUSH2 0x1AB1 JUMPI PUSH1 0x40 MLOAD PUSH3 0x461BCD PUSH1 0xE5 SHL DUP2 MSTORE PUSH1 0x4 ADD PUSH2 0x6CC SWAP2 SWAP1 PUSH2 0x304B JUMP JUMPDEST POP PUSH1 0x0 DUP7 GT PUSH2 0x1AD2 JUMPI PUSH1 0x40 MLOAD PUSH3 0x461BCD PUSH1 0xE5 SHL DUP2 MSTORE PUSH1 0x4 ADD PUSH2 0x6CC SWAP1 PUSH2 0x308B JUMP JUMPDEST PUSH2 0x1ADB DUP4 PUSH2 0x1DD8 JUMP JUMPDEST PUSH1 0x40 DUP1 MLOAD DUP1 DUP3 ADD SWAP1 SWAP2 MSTORE PUSH1 0x5 DUP2 MSTORE PUSH5 0x4730363035 PUSH1 0xD8 SHL PUSH1 0x20 DUP3 ADD MSTORE SWAP1 PUSH2 0x1B15 JUMPI PUSH1 0x40 MLOAD PUSH3 0x461BCD PUSH1 0xE5 SHL DUP2 MSTORE PUSH1 0x4 ADD PUSH2 0x6CC SWAP2 SWAP1 PUSH2 0x304B JUMP JUMPDEST POP PUSH1 0x9 DUP4 SWAP1 SSTORE PUSH1 0xD DUP7 SWAP1 SSTORE PUSH1 0xE DUP7 SWAP1 SSTORE PUSH1 0x7 DUP1 SLOAD PUSH1 0x1 PUSH1 0x1 PUSH1 0xA0 SHL SUB NOT AND PUSH1 0x1 PUSH1 0x1 PUSH1 0xA0 SHL SUB DUP8 DUP2 AND SWAP2 SWAP1 SWAP2 OR SWAP2 DUP3 SWAP1 SSTORE PUSH2 0x1B51 SWAP2 AND DUP6 PUSH2 0x2529 JUMP JUMPDEST POP POP POP POP POP POP JUMP JUMPDEST PUSH1 0x17 DUP1 SLOAD PUSH2 0xB9E SWAP1 PUSH2 0x31D3 JUMP JUMPDEST PUSH1 0x13 SLOAD DUP2 JUMP JUMPDEST PUSH1 0x0 DUP5 DUP2 MSTORE PUSH1 0x20 DUP2 SWAP1 MSTORE PUSH1 0x40 SWAP1 KECCAK256 SLOAD DUP5 SWAP1 PUSH1 0x1 PUSH1 0x1 PUSH1 0xA0 SHL SUB AND CALLER DUP2 EQ DUP1 PUSH2 0x1BB7 JUMPI POP PUSH1 0x1 PUSH1 0x1 PUSH1 0xA0 SHL SUB DUP2 AND PUSH1 0x0 SWAP1 DUP2 MSTORE PUSH1 0x3 PUSH1 0x20 SWAP1 DUP2 MSTORE PUSH1 0x40 DUP1 DUP4 KECCAK256 CALLER DUP5 MSTORE SWAP1 SWAP2 MSTORE SWAP1 KECCAK256 SLOAD PUSH1 0xFF AND JUMPDEST PUSH1 0x40 MLOAD DUP1 PUSH1 0x40 ADD PUSH1 0x40 MSTORE DUP1 PUSH1 0x6 DUP2 MSTORE PUSH1 0x20 ADD PUSH6 0x4E3033303033 PUSH1 0xD0 SHL DUP2 MSTORE POP SWAP1 PUSH2 0x1BF4 JUMPI PUSH1 0x40 MLOAD PUSH3 0x461BCD PUSH1 0xE5 SHL DUP2 MSTORE PUSH1 0x4 ADD PUSH2 0x6CC SWAP2 SWAP1 PUSH2 0x304B JUMP JUMPDEST POP PUSH1 0x12 SLOAD PUSH1 0x40 DUP1 MLOAD DUP1 DUP3 ADD SWAP1 SWAP2 MSTORE PUSH1 0x5 DUP2 MSTORE PUSH5 0x4830393033 PUSH1 0xD8 SHL PUSH1 0x20 DUP3 ADD MSTORE SWAP1 PUSH1 0x1 PUSH1 0x1 PUSH1 0xA0 SHL SUB AND ISZERO PUSH2 0x1C3C JUMPI PUSH1 0x40 MLOAD PUSH3 0x461BCD PUSH1 0xE5 SHL DUP2 MSTORE PUSH1 0x4 ADD PUSH2 0x6CC SWAP2 SWAP1 PUSH2 0x304B JUMP JUMPDEST POP PUSH1 0x6 SLOAD PUSH1 0x0 DUP8 DUP2 MSTORE PUSH1 0x20 DUP2 DUP2 MSTORE PUSH1 0x40 SWAP2 DUP3 SWAP1 KECCAK256 SLOAD DUP3 MLOAD DUP1 DUP5 ADD SWAP1 SWAP4 MSTORE PUSH1 0x5 DUP4 MSTORE PUSH5 0x5630383035 PUSH1 0xD8 SHL SWAP2 DUP4 ADD SWAP2 SWAP1 SWAP2 MSTORE SWAP1 SWAP2 PUSH1 0x1 PUSH1 0x1 PUSH1 0xA0 SHL SUB SWAP2 DUP3 AND SWAP2 AND EQ PUSH2 0x1C9A JUMPI PUSH1 0x40 MLOAD PUSH3 0x461BCD PUSH1 0xE5 SHL DUP2 MSTORE PUSH1 0x4 ADD PUSH2 0x6CC SWAP2 SWAP1 PUSH2 0x304B JUMP JUMPDEST POP PUSH1 0x6 SLOAD PUSH1 0x40 DUP1 MLOAD DUP1 DUP3 ADD SWAP1 SWAP2 MSTORE PUSH1 0x5 DUP2 MSTORE PUSH5 0x4830393031 PUSH1 0xD8 SHL PUSH1 0x20 DUP3 ADD MSTORE SWAP1 PUSH1 0x1 PUSH1 0x1 PUSH1 0xA0 SHL SUB DUP8 DUP2 AND SWAP2 AND EQ ISZERO PUSH2 0x1CE7 JUMPI PUSH1 0x40 MLOAD PUSH3 0x461BCD PUSH1 0xE5 SHL DUP2 MSTORE PUSH1 0x4 ADD PUSH2 0x6CC SWAP2 SWAP1 PUSH2 0x304B JUMP JUMPDEST POP PUSH1 0x0 PUSH2 0x1CF3 DUP5 PUSH2 0x26C7 JUMP JUMPDEST GT PUSH1 0x40 MLOAD DUP1 PUSH1 0x40 ADD PUSH1 0x40 MSTORE DUP1 PUSH1 0x5 DUP2 MSTORE PUSH1 0x20 ADD PUSH5 0x120C0E4C0D PUSH1 0xDA SHL DUP2 MSTORE POP SWAP1 PUSH2 0x1D30 JUMPI PUSH1 0x40 MLOAD PUSH3 0x461BCD PUSH1 0xE5 SHL DUP2 MSTORE PUSH1 0x4 ADD PUSH2 0x6CC SWAP2 SWAP1 PUSH2 0x304B JUMP JUMPDEST POP PUSH1 0x9 SLOAD PUSH1 0x40 DUP1 MLOAD DUP1 DUP3 ADD SWAP1 SWAP2 MSTORE PUSH1 0x5 DUP2 MSTORE PUSH5 0x11CC0D8C0D PUSH1 0xDA SHL PUSH1 0x20 DUP3 ADD MSTORE SWAP1 ISZERO PUSH2 0x1D6F JUMPI PUSH1 0x40 MLOAD PUSH3 0x461BCD PUSH1 0xE5 SHL DUP2 MSTORE PUSH1 0x4 ADD PUSH2 0x6CC SWAP2 SWAP1 PUSH2 0x304B JUMP JUMPDEST POP PUSH1 0x1A DUP4 SWAP1 SSTORE PUSH1 0x12 DUP1 SLOAD PUSH1 0x1 PUSH1 0x1 PUSH1 0xA0 SHL SUB NOT AND PUSH1 0x1 PUSH1 0x1 PUSH1 0xA0 SHL SUB DUP8 AND SWAP1 DUP2 OR SWAP1 SWAP2 SSTORE PUSH1 0x9 DUP5 SWAP1 SSTORE PUSH1 0x40 MLOAD PUSH32 0x28DA532863CA5B8347DF03D5C71A3DA841EC340505F5BD0061130C2F23E676D2 SWAP1 PUSH2 0x1DC8 SWAP1 DUP8 SWAP1 PUSH2 0x304B JUMP JUMPDEST PUSH1 0x40 MLOAD DUP1 SWAP2 SUB SWAP1 LOG2 POP POP POP POP POP POP JUMP JUMPDEST PUSH1 0x0 PUSH1 0x64 DUP3 EQ ISZERO PUSH2 0x1DEB JUMPI POP PUSH1 0x64 PUSH2 0x1E24 JUMP JUMPDEST PUSH1 0x65 DUP3 EQ ISZERO PUSH2 0x1DFC JUMPI POP PUSH1 0x65 PUSH2 0x1E24 JUMP JUMPDEST PUSH1 0xC8 DUP3 EQ ISZERO PUSH2 0x1E0D JUMPI POP PUSH1 0xC8 PUSH2 0x1E24 JUMP JUMPDEST PUSH2 0x12C DUP3 EQ ISZERO PUSH2 0x1E20 JUMPI POP PUSH2 0x12C PUSH2 0x1E24 JUMP JUMPDEST POP PUSH1 0x0 JUMPDEST SWAP2 SWAP1 POP JUMP JUMPDEST PUSH1 0x64 DUP2 EQ ISZERO PUSH2 0x1F07 JUMPI PUSH1 0x7 SLOAD PUSH1 0x11 SLOAD PUSH1 0xB SLOAD PUSH1 0x40 MLOAD PUSH1 0x1 PUSH1 0x1 PUSH1 0xA0 SHL SUB SWAP4 DUP5 AND SWAP4 SWAP1 SWAP3 AND SWAP2 PUSH32 0x3EE2F6FE89660C4C7E1BBC804840941A5B8F202AF2F8ED08D1F4541919AA46AA SWAP2 PUSH2 0x1E7B SWAP2 DUP8 SWAP1 PUSH2 0x318A JUMP JUMPDEST PUSH1 0x40 MLOAD DUP1 SWAP2 SUB SWAP1 LOG3 PUSH1 0xB SLOAD PUSH1 0x40 DUP1 MLOAD DUP1 DUP3 ADD DUP3 MSTORE PUSH1 0x5 DUP2 MSTORE PUSH5 0x473036313 PUSH1 0xDC SHL PUSH1 0x20 DUP3 ADD MSTORE SWAP1 MLOAD CALLER SWAP3 PUSH1 0x0 DUP1 MLOAD PUSH1 0x20 PUSH2 0x324D DUP4 CODECOPY DUP2 MLOAD SWAP2 MSTORE SWAP3 PUSH2 0x1EBE SWAP3 PUSH2 0x3032 JUMP JUMPDEST PUSH1 0x40 MLOAD DUP1 SWAP2 SUB SWAP1 LOG2 PUSH1 0x11 SLOAD PUSH1 0x7 SLOAD PUSH2 0x1EE3 SWAP2 PUSH1 0x1 PUSH1 0x1 PUSH1 0xA0 SHL SUB SWAP1 DUP2 AND SWAP2 AND DUP5 PUSH2 0x26EF JUMP JUMPDEST PUSH1 0xA DUP1 SLOAD PUSH1 0xFF PUSH1 0xA0 SHL NOT SWAP1 DUP2 AND SWAP1 SWAP2 SSTORE PUSH1 0x7 DUP1 SLOAD SWAP1 SWAP2 AND PUSH1 0x1 PUSH1 0xA0 SHL OR SWAP1 SSTORE PUSH2 0x86C JUMP JUMPDEST PUSH1 0x65 DUP2 EQ ISZERO PUSH2 0x1F6D JUMPI PUSH1 0xB SLOAD PUSH1 0x40 DUP1 MLOAD DUP1 DUP3 ADD DUP3 MSTORE PUSH1 0x5 DUP2 MSTORE PUSH5 0x4730363131 PUSH1 0xD8 SHL PUSH1 0x20 DUP3 ADD MSTORE SWAP1 MLOAD CALLER SWAP3 PUSH1 0x0 DUP1 MLOAD PUSH1 0x20 PUSH2 0x324D DUP4 CODECOPY DUP2 MLOAD SWAP2 MSTORE SWAP3 PUSH2 0x1F4B SWAP3 PUSH2 0x3032 JUMP JUMPDEST PUSH1 0x40 MLOAD DUP1 SWAP2 SUB SWAP1 LOG2 PUSH1 0x8 DUP1 SLOAD PUSH1 0xFF PUSH1 0xA0 SHL NOT AND SWAP1 SSTORE PUSH2 0x1F68 PUSH2 0x2941 JUMP JUMPDEST PUSH2 0x86C JUMP JUMPDEST PUSH2 0x12C DUP2 EQ ISZERO PUSH2 0x86C JUMPI PUSH1 0xB SLOAD PUSH1 0x40 DUP1 MLOAD DUP1 DUP3 ADD DUP3 MSTORE PUSH1 0x5 DUP2 MSTORE PUSH5 0x23981B1899 PUSH1 0xD9 SHL PUSH1 0x20 DUP3 ADD MSTORE SWAP1 MLOAD CALLER SWAP3 PUSH1 0x0 DUP1 MLOAD PUSH1 0x20 PUSH2 0x324D DUP4 CODECOPY DUP2 MLOAD SWAP2 MSTORE SWAP3 PUSH2 0x1FB2 SWAP3 PUSH2 0x3032 JUMP JUMPDEST PUSH1 0x40 MLOAD DUP1 SWAP2 SUB SWAP1 LOG2 PUSH1 0x7 DUP1 SLOAD PUSH1 0xFF PUSH1 0xA0 SHL NOT AND SWAP1 SSTORE PUSH1 0x6 SLOAD PUSH2 0x1F68 SWAP1 PUSH1 0x1 PUSH1 0x1 PUSH1 0xA0 SHL SUB AND DUP4 PUSH2 0x2980 JUMP JUMPDEST PUSH1 0x40 DUP1 MLOAD DUP1 DUP3 ADD SWAP1 SWAP2 MSTORE PUSH1 0x6 DUP2 MSTORE PUSH6 0x4E3033303031 PUSH1 0xD0 SHL PUSH1 0x20 DUP3 ADD MSTORE PUSH1 0x1 PUSH1 0x1 PUSH1 0xA0 SHL SUB DUP4 AND PUSH2 0x2021 JUMPI PUSH1 0x40 MLOAD PUSH3 0x461BCD PUSH1 0xE5 SHL DUP2 MSTORE PUSH1 0x4 ADD PUSH2 0x6CC SWAP2 SWAP1 PUSH2 0x304B JUMP JUMPDEST POP PUSH1 0x0 DUP2 DUP2 MSTORE PUSH1 0x20 DUP2 DUP2 MSTORE PUSH1 0x40 SWAP2 DUP3 SWAP1 KECCAK256 SLOAD DUP3 MLOAD DUP1 DUP5 ADD SWAP1 SWAP4 MSTORE PUSH1 0x6 DUP4 MSTORE PUSH6 0x27181998181B PUSH1 0xD1 SHL SWAP2 DUP4 ADD SWAP2 SWAP1 SWAP2 MSTORE PUSH1 0x1 PUSH1 0x1 PUSH1 0xA0 SHL SUB AND ISZERO PUSH2 0x2077 JUMPI PUSH1 0x40 MLOAD PUSH3 0x461BCD PUSH1 0xE5 SHL DUP2 MSTORE PUSH1 0x4 ADD PUSH2 0x6CC SWAP2 SWAP1 PUSH2 0x304B JUMP JUMPDEST POP PUSH2 0x2082 DUP3 DUP3 PUSH2 0x2A27 JUMP JUMPDEST PUSH1 0x40 MLOAD DUP2 SWAP1 PUSH1 0x1 PUSH1 0x1 PUSH1 0xA0 SHL SUB DUP5 AND SWAP1 PUSH1 0x0 SWAP1 PUSH32 0xDDF252AD1BE2C89B69C2B068FC378DAA952BA7F163C4A11628F55A4DF523B3EF SWAP1 DUP3 SWAP1 LOG4 POP POP JUMP JUMPDEST PUSH1 0xA SLOAD PUSH1 0x40 DUP1 MLOAD DUP1 DUP3 ADD SWAP1 SWAP2 MSTORE PUSH1 0x5 DUP2 MSTORE PUSH5 0x23981B1819 PUSH1 0xD9 SHL PUSH1 0x20 DUP3 ADD MSTORE SWAP1 PUSH1 0x1 PUSH1 0x1 PUSH1 0xA0 SHL SUB AND ISZERO PUSH2 0x2105 JUMPI PUSH1 0x40 MLOAD PUSH3 0x461BCD PUSH1 0xE5 SHL DUP2 MSTORE PUSH1 0x4 ADD PUSH2 0x6CC SWAP2 SWAP1 PUSH2 0x304B JUMP JUMPDEST POP PUSH1 0xA DUP1 SLOAD PUSH1 0x1 PUSH1 0x1 PUSH1 0xA0 SHL SUB SWAP3 DUP4 AND PUSH1 0x1 PUSH1 0x1 PUSH1 0xA0 SHL SUB NOT SWAP2 DUP3 AND OR SWAP1 SWAP2 SSTORE PUSH1 0x8 SLOAD PUSH1 0x7 DUP1 SLOAD DUP4 AND SWAP2 SWAP1 SWAP4 AND SWAP1 DUP2 OR SWAP1 SWAP3 SSTORE PUSH1 0x10 DUP1 SLOAD SWAP1 SWAP2 AND SWAP1 SWAP2 OR SWAP1 SSTORE JUMP JUMPDEST PUSH1 0x64 DUP3 EQ ISZERO PUSH2 0x2200 JUMPI PUSH1 0x6 SLOAD PUSH1 0x0 DUP3 DUP2 MSTORE PUSH1 0x20 DUP2 DUP2 MSTORE PUSH1 0x40 SWAP2 DUP3 SWAP1 KECCAK256 SLOAD DUP3 MLOAD DUP1 DUP5 ADD SWAP1 SWAP4 MSTORE PUSH1 0x5 DUP4 MSTORE PUSH5 0x5630383035 PUSH1 0xD8 SHL SWAP2 DUP4 ADD SWAP2 SWAP1 SWAP2 MSTORE SWAP1 SWAP2 PUSH1 0x1 PUSH1 0x1 PUSH1 0xA0 SHL SUB SWAP2 DUP3 AND SWAP2 AND EQ ISZERO PUSH2 0x21AD JUMPI PUSH1 0x40 MLOAD PUSH3 0x461BCD PUSH1 0xE5 SHL DUP2 MSTORE PUSH1 0x4 ADD PUSH2 0x6CC SWAP2 SWAP1 PUSH2 0x304B JUMP JUMPDEST POP PUSH1 0xA SLOAD PUSH1 0x40 DUP1 MLOAD DUP1 DUP3 ADD SWAP1 SWAP2 MSTORE PUSH1 0x5 DUP2 MSTORE PUSH5 0x158C0E0C0D PUSH1 0xDA SHL PUSH1 0x20 DUP3 ADD MSTORE SWAP1 PUSH1 0x1 PUSH1 0xA0 SHL SWAP1 DIV PUSH1 0xFF AND ISZERO ISZERO PUSH1 0x1 EQ PUSH2 0x21FA JUMPI PUSH1 0x40 MLOAD PUSH3 0x461BCD PUSH1 0xE5 SHL DUP2 MSTORE PUSH1 0x4 ADD PUSH2 0x6CC SWAP2 SWAP1 PUSH2 0x304B JUMP JUMPDEST POP PUSH2 0x86C JUMP JUMPDEST PUSH1 0x65 DUP3 EQ ISZERO PUSH2 0x2255 JUMPI PUSH1 0x8 SLOAD PUSH1 0x40 DUP1 MLOAD DUP1 DUP3 ADD SWAP1 SWAP2 MSTORE PUSH1 0x5 DUP2 MSTORE PUSH5 0x23981B181B PUSH1 0xD9 SHL PUSH1 0x20 DUP3 ADD MSTORE SWAP1 PUSH1 0x1 PUSH1 0xA0 SHL SWAP1 DIV PUSH1 0xFF AND ISZERO ISZERO PUSH1 0x1 EQ PUSH2 0x21FA JUMPI PUSH1 0x40 MLOAD PUSH3 0x461BCD PUSH1 0xE5 SHL DUP2 MSTORE PUSH1 0x4 ADD PUSH2 0x6CC SWAP2 SWAP1 PUSH2 0x304B JUMP JUMPDEST PUSH1 0x8 SLOAD PUSH1 0x1 PUSH1 0xA0 SHL SWAP1 DIV PUSH1 0xFF AND ISZERO PUSH2 0x86C JUMPI PUSH1 0x40 MLOAD PUSH3 0x461BCD PUSH1 0xE5 SHL DUP2 MSTORE PUSH1 0x4 ADD PUSH2 0x6CC SWAP1 PUSH2 0x305E JUMP JUMPDEST PUSH1 0x0 DUP3 DUP2 MSTORE PUSH1 0x20 DUP2 SWAP1 MSTORE PUSH1 0x40 SWAP1 KECCAK256 SLOAD DUP3 SWAP1 PUSH1 0x1 PUSH1 0x1 PUSH1 0xA0 SHL SUB AND CALLER DUP2 EQ DUP1 PUSH2 0x22BD JUMPI POP PUSH1 0x0 DUP3 DUP2 MSTORE PUSH1 0x1 PUSH1 0x20 MSTORE PUSH1 0x40 SWAP1 KECCAK256 SLOAD PUSH1 0x1 PUSH1 0x1 PUSH1 0xA0 SHL SUB AND CALLER EQ JUMPDEST DUP1 PUSH2 0x22EB JUMPI POP PUSH1 0x1 PUSH1 0x1 PUSH1 0xA0 SHL SUB DUP2 AND PUSH1 0x0 SWAP1 DUP2 MSTORE PUSH1 0x3 PUSH1 0x20 SWAP1 DUP2 MSTORE PUSH1 0x40 DUP1 DUP4 KECCAK256 CALLER DUP5 MSTORE SWAP1 SWAP2 MSTORE SWAP1 KECCAK256 SLOAD PUSH1 0xFF AND JUMPDEST PUSH1 0x40 MLOAD DUP1 PUSH1 0x40 ADD PUSH1 0x40 MSTORE DUP1 PUSH1 0x6 DUP2 MSTORE PUSH1 0x20 ADD PUSH6 0x138C0CCC0C0D PUSH1 0xD2 SHL DUP2 MSTORE POP SWAP1 PUSH2 0x2328 JUMPI PUSH1 0x40 MLOAD PUSH3 0x461BCD PUSH1 0xE5 SHL DUP2 MSTORE PUSH1 0x4 ADD PUSH2 0x6CC SWAP2 SWAP1 PUSH2 0x304B JUMP JUMPDEST POP PUSH1 0x0 DUP5 DUP2 MSTORE PUSH1 0x20 DUP2 DUP2 MSTORE PUSH1 0x40 SWAP2 DUP3 SWAP1 KECCAK256 SLOAD DUP3 MLOAD DUP1 DUP5 ADD SWAP1 SWAP4 MSTORE PUSH1 0x6 DUP4 MSTORE PUSH6 0x271819981819 PUSH1 0xD1 SHL SWAP2 DUP4 ADD SWAP2 SWAP1 SWAP2 MSTORE DUP6 SWAP2 SWAP1 PUSH1 0x1 PUSH1 0x1 PUSH1 0xA0 SHL SUB AND PUSH2 0x2380 JUMPI PUSH1 0x40 MLOAD PUSH3 0x461BCD PUSH1 0xE5 SHL DUP2 MSTORE PUSH1 0x4 ADD PUSH2 0x6CC SWAP2 SWAP1 PUSH2 0x304B JUMP JUMPDEST POP PUSH1 0x0 DUP6 DUP2 MSTORE PUSH1 0x20 DUP2 DUP2 MSTORE PUSH1 0x40 SWAP2 DUP3 SWAP1 KECCAK256 SLOAD DUP3 MLOAD DUP1 DUP5 ADD SWAP1 SWAP4 MSTORE PUSH1 0x6 DUP4 MSTORE PUSH6 0x4E3033303037 PUSH1 0xD0 SHL SWAP2 DUP4 ADD SWAP2 SWAP1 SWAP2 MSTORE PUSH1 0x1 PUSH1 0x1 PUSH1 0xA0 SHL SUB SWAP1 DUP2 AND SWAP2 SWAP1 DUP10 AND DUP3 EQ PUSH2 0x23DD JUMPI PUSH1 0x40 MLOAD PUSH3 0x461BCD PUSH1 0xE5 SHL DUP2 MSTORE PUSH1 0x4 ADD PUSH2 0x6CC SWAP2 SWAP1 PUSH2 0x304B JUMP JUMPDEST POP PUSH1 0x40 DUP1 MLOAD DUP1 DUP3 ADD SWAP1 SWAP2 MSTORE PUSH1 0x6 DUP2 MSTORE PUSH6 0x4E3033303031 PUSH1 0xD0 SHL PUSH1 0x20 DUP3 ADD MSTORE PUSH1 0x1 PUSH1 0x1 PUSH1 0xA0 SHL SUB DUP9 AND PUSH2 0x2422 JUMPI PUSH1 0x40 MLOAD PUSH3 0x461BCD PUSH1 0xE5 SHL DUP2 MSTORE PUSH1 0x4 ADD PUSH2 0x6CC SWAP2 SWAP1 PUSH2 0x304B JUMP JUMPDEST POP PUSH2 0x242D DUP8 DUP8 PUSH2 0x2ACB JUMP JUMPDEST PUSH2 0x243F DUP8 PUSH1 0x1 PUSH1 0x1 PUSH1 0xA0 SHL SUB AND PUSH2 0x2B46 JUMP JUMPDEST ISZERO PUSH2 0x251F JUMPI PUSH1 0x40 MLOAD PUSH4 0xA85BD01 PUSH1 0xE1 SHL DUP2 MSTORE PUSH1 0x0 SWAP1 PUSH1 0x1 PUSH1 0x1 PUSH1 0xA0 SHL SUB DUP10 AND SWAP1 PUSH4 0x150B7A02 SWAP1 PUSH2 0x2479 SWAP1 CALLER SWAP1 DUP14 SWAP1 DUP13 SWAP1 DUP13 SWAP1 PUSH1 0x4 ADD PUSH2 0x2FC6 JUMP JUMPDEST PUSH1 0x20 PUSH1 0x40 MLOAD DUP1 DUP4 SUB DUP2 PUSH1 0x0 DUP8 DUP1 EXTCODESIZE ISZERO DUP1 ISZERO PUSH2 0x2493 JUMPI PUSH1 0x0 DUP1 REVERT JUMPDEST POP GAS CALL ISZERO DUP1 ISZERO PUSH2 0x24A7 JUMPI RETURNDATASIZE PUSH1 0x0 DUP1 RETURNDATACOPY RETURNDATASIZE PUSH1 0x0 REVERT JUMPDEST POP POP POP POP PUSH1 0x40 MLOAD RETURNDATASIZE PUSH1 0x1F NOT PUSH1 0x1F DUP3 ADD AND DUP3 ADD DUP1 PUSH1 0x40 MSTORE POP DUP2 ADD SWAP1 PUSH2 0x24CB SWAP2 SWAP1 PUSH2 0x2D94 JUMP JUMPDEST PUSH1 0x40 DUP1 MLOAD DUP1 DUP3 ADD SWAP1 SWAP2 MSTORE PUSH1 0x6 DUP2 MSTORE PUSH6 0x4E3033303035 PUSH1 0xD0 SHL PUSH1 0x20 DUP3 ADD MSTORE SWAP1 SWAP2 POP PUSH1 0x1 PUSH1 0x1 PUSH1 0xE0 SHL SUB NOT DUP3 AND PUSH4 0xA85BD01 PUSH1 0xE1 SHL EQ PUSH2 0x251C JUMPI PUSH1 0x40 MLOAD PUSH3 0x461BCD PUSH1 0xE5 SHL DUP2 MSTORE PUSH1 0x4 ADD PUSH2 0x6CC SWAP2 SWAP1 PUSH2 0x304B JUMP JUMPDEST POP POP JUMPDEST POP POP POP POP POP POP POP POP JUMP JUMPDEST PUSH1 0x0 DUP2 DUP2 MSTORE PUSH1 0x20 DUP2 SWAP1 MSTORE PUSH1 0x40 SWAP1 KECCAK256 SLOAD DUP2 SWAP1 PUSH1 0x1 PUSH1 0x1 PUSH1 0xA0 SHL SUB AND CALLER DUP2 EQ DUP1 PUSH2 0x2574 JUMPI POP PUSH1 0x1 PUSH1 0x1 PUSH1 0xA0 SHL SUB DUP2 AND PUSH1 0x0 SWAP1 DUP2 MSTORE PUSH1 0x3 PUSH1 0x20 SWAP1 DUP2 MSTORE PUSH1 0x40 DUP1 DUP4 KECCAK256 CALLER DUP5 MSTORE SWAP1 SWAP2 MSTORE SWAP1 KECCAK256 SLOAD PUSH1 0xFF AND JUMPDEST PUSH1 0x40 MLOAD DUP1 PUSH1 0x40 ADD PUSH1 0x40 MSTORE DUP1 PUSH1 0x6 DUP2 MSTORE PUSH1 0x20 ADD PUSH6 0x4E3033303033 PUSH1 0xD0 SHL DUP2 MSTORE POP SWAP1 PUSH2 0x25B1 JUMPI PUSH1 0x40 MLOAD PUSH3 0x461BCD PUSH1 0xE5 SHL DUP2 MSTORE PUSH1 0x4 ADD PUSH2 0x6CC SWAP2 SWAP1 PUSH2 0x304B JUMP JUMPDEST POP PUSH1 0x0 DUP4 DUP2 MSTORE PUSH1 0x20 DUP2 DUP2 MSTORE PUSH1 0x40 SWAP2 DUP3 SWAP1 KECCAK256 SLOAD DUP3 MLOAD DUP1 DUP5 ADD SWAP1 SWAP4 MSTORE PUSH1 0x6 DUP4 MSTORE PUSH6 0x271819981819 PUSH1 0xD1 SHL SWAP2 DUP4 ADD SWAP2 SWAP1 SWAP2 MSTORE DUP5 SWAP2 SWAP1 PUSH1 0x1 PUSH1 0x1 PUSH1 0xA0 SHL SUB AND PUSH2 0x2609 JUMPI PUSH1 0x40 MLOAD PUSH3 0x461BCD PUSH1 0xE5 SHL DUP2 MSTORE PUSH1 0x4 ADD PUSH2 0x6CC SWAP2 SWAP1 PUSH2 0x304B JUMP JUMPDEST POP PUSH1 0x0 DUP5 DUP2 MSTORE PUSH1 0x20 DUP2 DUP2 MSTORE PUSH1 0x40 SWAP2 DUP3 SWAP1 KECCAK256 SLOAD DUP3 MLOAD DUP1 DUP5 ADD SWAP1 SWAP4 MSTORE PUSH1 0x6 DUP4 MSTORE PUSH6 0x9C606660607 PUSH1 0xD3 SHL SWAP2 DUP4 ADD SWAP2 SWAP1 SWAP2 MSTORE PUSH1 0x1 PUSH1 0x1 PUSH1 0xA0 SHL SUB SWAP1 DUP2 AND SWAP2 SWAP1 DUP8 AND DUP3 EQ ISZERO PUSH2 0x2667 JUMPI PUSH1 0x40 MLOAD PUSH3 0x461BCD PUSH1 0xE5 SHL DUP2 MSTORE PUSH1 0x4 ADD PUSH2 0x6CC SWAP2 SWAP1 PUSH2 0x304B JUMP JUMPDEST POP PUSH1 0x0 DUP6 DUP2 MSTORE PUSH1 0x1 PUSH1 0x20 MSTORE PUSH1 0x40 DUP1 DUP3 KECCAK256 DUP1 SLOAD PUSH1 0x1 PUSH1 0x1 PUSH1 0xA0 SHL SUB NOT AND PUSH1 0x1 PUSH1 0x1 PUSH1 0xA0 SHL SUB DUP11 DUP2 AND SWAP2 DUP3 OR SWAP1 SWAP3 SSTORE SWAP2 MLOAD DUP9 SWAP4 SWAP2 DUP6 AND SWAP2 PUSH32 0x8C5BE1E5EBEC7D5BD14F71427D1E84F3DD0314C0F7B2291E5B200AC8C7C3B925 SWAP2 LOG4 POP POP POP POP POP POP JUMP JUMPDEST PUSH1 0x0 PUSH2 0x1F4 DUP3 EQ ISZERO PUSH2 0x26DC JUMPI POP PUSH2 0x1F4 PUSH2 0x1E24 JUMP JUMPDEST PUSH2 0x1F5 DUP3 EQ ISZERO PUSH2 0x1E20 JUMPI POP PUSH2 0x1F5 PUSH2 0x1E24 JUMP JUMPDEST PUSH1 0x0 DUP2 DUP2 MSTORE PUSH1 0x20 DUP2 SWAP1 MSTORE PUSH1 0x40 SWAP1 KECCAK256 SLOAD DUP2 SWAP1 PUSH1 0x1 PUSH1 0x1 PUSH1 0xA0 SHL SUB AND CALLER DUP2 EQ DUP1 PUSH2 0x273A JUMPI POP PUSH1 0x1 PUSH1 0x1 PUSH1 0xA0 SHL SUB DUP2 AND PUSH1 0x0 SWAP1 DUP2 MSTORE PUSH1 0x3 PUSH1 0x20 SWAP1 DUP2 MSTORE PUSH1 0x40 DUP1 DUP4 KECCAK256 CALLER DUP5 MSTORE SWAP1 SWAP2 MSTORE SWAP1 KECCAK256 SLOAD PUSH1 0xFF AND JUMPDEST PUSH1 0x40 MLOAD DUP1 PUSH1 0x40 ADD PUSH1 0x40 MSTORE DUP1 PUSH1 0x6 DUP2 MSTORE PUSH1 0x20 ADD PUSH6 0x4E3033303033 PUSH1 0xD0 SHL DUP2 MSTORE POP SWAP1 PUSH2 0x2777 JUMPI PUSH1 0x40 MLOAD PUSH3 0x461BCD PUSH1 0xE5 SHL DUP2 MSTORE PUSH1 0x4 ADD PUSH2 0x6CC SWAP2 SWAP1 PUSH2 0x304B JUMP JUMPDEST POP PUSH1 0x40 DUP1 MLOAD DUP1 DUP3 ADD SWAP1 SWAP2 MSTORE PUSH1 0x5 DUP2 MSTORE PUSH5 0x473036303 PUSH1 0xDC SHL PUSH1 0x20 DUP3 ADD MSTORE PUSH1 0x1 PUSH1 0x1 PUSH1 0xA0 SHL SUB DUP6 AND PUSH2 0x27BB JUMPI PUSH1 0x40 MLOAD PUSH3 0x461BCD PUSH1 0xE5 SHL DUP2 MSTORE PUSH1 0x4 ADD PUSH2 0x6CC SWAP2 SWAP1 PUSH2 0x304B JUMP JUMPDEST POP PUSH1 0x7 SLOAD PUSH1 0x40 DUP1 MLOAD DUP1 DUP3 ADD SWAP1 SWAP2 MSTORE PUSH1 0x19 DUP2 MSTORE PUSH32 0x4552524F523A204E4557204F574E45522041535349474E454400000000000000 PUSH1 0x20 DUP3 ADD MSTORE SWAP1 PUSH1 0x1 PUSH1 0x1 PUSH1 0xA0 SHL SUB DUP7 DUP2 AND SWAP2 AND EQ PUSH2 0x281F JUMPI PUSH1 0x40 MLOAD PUSH3 0x461BCD PUSH1 0xE5 SHL DUP2 MSTORE PUSH1 0x4 ADD PUSH2 0x6CC SWAP2 SWAP1 PUSH2 0x304B JUMP JUMPDEST POP PUSH1 0x1 PUSH1 0x1 PUSH1 0xA0 SHL SUB DUP6 AND PUSH2 0x287F JUMPI PUSH1 0x8 SLOAD PUSH1 0x40 DUP1 MLOAD DUP1 DUP3 ADD SWAP1 SWAP2 MSTORE PUSH1 0x5 DUP2 MSTORE PUSH5 0x8E606C607 PUSH1 0xDB SHL PUSH1 0x20 DUP3 ADD MSTORE SWAP1 PUSH1 0x1 PUSH1 0x1 PUSH1 0xA0 SHL SUB DUP7 DUP2 AND SWAP2 AND EQ PUSH2 0x2879 JUMPI PUSH1 0x40 MLOAD PUSH3 0x461BCD PUSH1 0xE5 SHL DUP2 MSTORE PUSH1 0x4 ADD PUSH2 0x6CC SWAP2 SWAP1 PUSH2 0x304B JUMP JUMPDEST POP PUSH2 0x28CC JUMP JUMPDEST PUSH1 0x6 SLOAD PUSH1 0x40 DUP1 MLOAD DUP1 DUP3 ADD SWAP1 SWAP2 MSTORE PUSH1 0x5 DUP2 MSTORE PUSH5 0x4730363031 PUSH1 0xD8 SHL PUSH1 0x20 DUP3 ADD MSTORE SWAP1 PUSH1 0x1 PUSH1 0x1 PUSH1 0xA0 SHL SUB DUP8 DUP2 AND SWAP2 AND EQ PUSH2 0x28CA JUMPI PUSH1 0x40 MLOAD PUSH3 0x461BCD PUSH1 0xE5 SHL DUP2 MSTORE PUSH1 0x4 ADD PUSH2 0x6CC SWAP2 SWAP1 PUSH2 0x304B JUMP JUMPDEST POP JUMPDEST DUP4 PUSH1 0x1 PUSH1 0x1 PUSH1 0xA0 SHL SUB AND DUP6 PUSH1 0x1 PUSH1 0x1 PUSH1 0xA0 SHL SUB AND PUSH32 0x8BE0079C531659141344CD1FD0A4F28419497F9722A3DAAFE3B4186F6B6457E0 PUSH1 0x40 MLOAD PUSH1 0x40 MLOAD DUP1 SWAP2 SUB SWAP1 LOG3 POP POP PUSH1 0x6 DUP1 SLOAD PUSH1 0x1 PUSH1 0x1 PUSH1 0xA0 SHL SUB SWAP1 SWAP4 AND PUSH1 0x1 PUSH1 0x1 PUSH1 0xA0 SHL SUB NOT SWAP4 DUP5 AND OR SWAP1 SSTORE POP PUSH1 0x10 DUP1 SLOAD DUP3 AND SWAP1 SSTORE PUSH1 0x7 DUP1 SLOAD SWAP1 SWAP2 AND SWAP1 SSTORE POP JUMP JUMPDEST PUSH1 0x8 SLOAD PUSH1 0x1 PUSH1 0xA0 SHL SWAP1 DIV PUSH1 0xFF AND ISZERO ISZERO PUSH1 0x1 EQ ISZERO PUSH2 0x296A JUMPI PUSH1 0x8 DUP1 SLOAD PUSH1 0xFF PUSH1 0xA8 SHL NOT AND SWAP1 SSTORE PUSH2 0x297E JUMP JUMPDEST PUSH1 0x8 DUP1 SLOAD PUSH1 0xFF PUSH1 0xA8 SHL NOT AND PUSH1 0x1 PUSH1 0xA8 SHL OR SWAP1 SSTORE JUMPDEST JUMP JUMPDEST PUSH1 0x0 DUP2 DUP2 MSTORE PUSH1 0x20 DUP2 DUP2 MSTORE PUSH1 0x40 SWAP2 DUP3 SWAP1 KECCAK256 SLOAD DUP3 MLOAD DUP1 DUP5 ADD SWAP1 SWAP4 MSTORE PUSH1 0x6 DUP4 MSTORE PUSH6 0x4E3033303037 PUSH1 0xD0 SHL SWAP2 DUP4 ADD SWAP2 SWAP1 SWAP2 MSTORE PUSH1 0x1 PUSH1 0x1 PUSH1 0xA0 SHL SUB DUP5 DUP2 AND SWAP2 AND EQ PUSH2 0x29D9 JUMPI PUSH1 0x40 MLOAD PUSH3 0x461BCD PUSH1 0xE5 SHL DUP2 MSTORE PUSH1 0x4 ADD PUSH2 0x6CC SWAP2 SWAP1 PUSH2 0x304B JUMP JUMPDEST POP PUSH1 0x1 PUSH1 0x1 PUSH1 0xA0 SHL SUB DUP3 AND PUSH1 0x0 SWAP1 DUP2 MSTORE PUSH1 0x2 PUSH1 0x20 MSTORE PUSH1 0x40 DUP2 KECCAK256 DUP1 SLOAD PUSH1 0x1 SWAP3 SWAP1 PUSH2 0x2A03 SWAP1 DUP5 SWAP1 PUSH2 0x31BC JUMP JUMPDEST SWAP1 SWAP2 SSTORE POP POP PUSH1 0x0 SWAP1 DUP2 MSTORE PUSH1 0x20 DUP2 SWAP1 MSTORE PUSH1 0x40 SWAP1 KECCAK256 DUP1 SLOAD PUSH1 0x1 PUSH1 0x1 PUSH1 0xA0 SHL SUB NOT AND SWAP1 SSTORE POP JUMP JUMPDEST PUSH1 0x0 DUP2 DUP2 MSTORE PUSH1 0x20 DUP2 DUP2 MSTORE PUSH1 0x40 SWAP2 DUP3 SWAP1 KECCAK256 SLOAD DUP3 MLOAD DUP1 DUP5 ADD SWAP1 SWAP4 MSTORE PUSH1 0x6 DUP4 MSTORE PUSH6 0x27181998181B PUSH1 0xD1 SHL SWAP2 DUP4 ADD SWAP2 SWAP1 SWAP2 MSTORE PUSH1 0x1 PUSH1 0x1 PUSH1 0xA0 SHL SUB AND ISZERO PUSH2 0x2A7C JUMPI PUSH1 0x40 MLOAD PUSH3 0x461BCD PUSH1 0xE5 SHL DUP2 MSTORE PUSH1 0x4 ADD PUSH2 0x6CC SWAP2 SWAP1 PUSH2 0x304B JUMP JUMPDEST POP PUSH1 0x0 DUP2 DUP2 MSTORE PUSH1 0x20 DUP2 DUP2 MSTORE PUSH1 0x40 DUP1 DUP4 KECCAK256 DUP1 SLOAD PUSH1 0x1 PUSH1 0x1 PUSH1 0xA0 SHL SUB NOT AND PUSH1 0x1 PUSH1 0x1 PUSH1 0xA0 SHL SUB DUP8 AND SWAP1 DUP2 OR SWAP1 SWAP2 SSTORE DUP4 MSTORE PUSH1 0x2 SWAP1 SWAP2 MSTORE DUP2 KECCAK256 DUP1 SLOAD PUSH1 0x1 SWAP3 SWAP1 PUSH2 0x2AC2 SWAP1 DUP5 SWAP1 PUSH2 0x31A4 JUMP JUMPDEST SWAP1 SWAP2 SSTORE POP POP POP POP JUMP JUMPDEST PUSH1 0x0 DUP2 DUP2 MSTORE PUSH1 0x20 DUP2 SWAP1 MSTORE PUSH1 0x40 SWAP1 KECCAK256 SLOAD PUSH1 0x1 PUSH1 0x1 PUSH1 0xA0 SHL SUB AND PUSH2 0x2AEC DUP3 PUSH2 0x2B82 JUMP JUMPDEST PUSH2 0x2AF6 DUP2 DUP4 PUSH2 0x2980 JUMP JUMPDEST PUSH2 0x2B00 DUP4 DUP4 PUSH2 0x2A27 JUMP JUMPDEST DUP2 DUP4 PUSH1 0x1 PUSH1 0x1 PUSH1 0xA0 SHL SUB AND DUP3 PUSH1 0x1 PUSH1 0x1 PUSH1 0xA0 SHL SUB AND PUSH32 0xDDF252AD1BE2C89B69C2B068FC378DAA952BA7F163C4A11628F55A4DF523B3EF PUSH1 0x40 MLOAD PUSH1 0x40 MLOAD DUP1 SWAP2 SUB SWAP1 LOG4 POP POP POP JUMP JUMPDEST PUSH1 0x0 DUP2 EXTCODEHASH PUSH32 0xC5D2460186F7233C927E7DB2DCC703C0E500B653CA82273B7BFAD8045D85A470 DUP2 ISZERO DUP1 ISZERO SWAP1 PUSH2 0x2B7A JUMPI POP DUP1 DUP3 EQ ISZERO JUMPDEST SWAP5 SWAP4 POP POP POP POP JUMP JUMPDEST PUSH1 0x0 SWAP1 DUP2 MSTORE PUSH1 0x1 PUSH1 0x20 MSTORE PUSH1 0x40 SWAP1 KECCAK256 DUP1 SLOAD PUSH1 0x1 PUSH1 0x1 PUSH1 0xA0 SHL SUB NOT AND SWAP1 SSTORE JUMP JUMPDEST DUP3 DUP1 SLOAD PUSH2 0x2BAC SWAP1 PUSH2 0x31D3 JUMP JUMPDEST SWAP1 PUSH1 0x0 MSTORE PUSH1 0x20 PUSH1 0x0 KECCAK256 SWAP1 PUSH1 0x1F ADD PUSH1 0x20 SWAP1 DIV DUP2 ADD SWAP3 DUP3 PUSH2 0x2BCE JUMPI PUSH1 0x0 DUP6 SSTORE PUSH2 0x2C1B JUMP JUMPDEST DUP3 PUSH1 0x1F LT PUSH2 0x2BDF JUMPI DUP1 SLOAD DUP6 SSTORE PUSH2 0x2C1B JUMP JUMPDEST DUP3 DUP1 ADD PUSH1 0x1 ADD DUP6 SSTORE DUP3 ISZERO PUSH2 0x2C1B JUMPI PUSH1 0x0 MSTORE PUSH1 0x20 PUSH1 0x0 KECCAK256 SWAP2 PUSH1 0x1F ADD PUSH1 0x20 SWAP1 DIV DUP3 ADD JUMPDEST DUP3 DUP2 GT ISZERO PUSH2 0x2C1B JUMPI DUP3 SLOAD DUP3 SSTORE SWAP2 PUSH1 0x1 ADD SWAP2 SWAP1 PUSH1 0x1 ADD SWAP1 PUSH2 0x2C00 JUMP JUMPDEST POP PUSH2 0x2C27 SWAP3 SWAP2 POP PUSH2 0x2C9F JUMP JUMPDEST POP SWAP1 JUMP JUMPDEST DUP3 DUP1 SLOAD PUSH2 0x2C37 SWAP1 PUSH2 0x31D3 JUMP JUMPDEST SWAP1 PUSH1 0x0 MSTORE PUSH1 0x20 PUSH1 0x0 KECCAK256 SWAP1 PUSH1 0x1F ADD PUSH1 0x20 SWAP1 DIV DUP2 ADD SWAP3 DUP3 PUSH2 0x2C59 JUMPI PUSH1 0x0 DUP6 SSTORE PUSH2 0x2C1B JUMP JUMPDEST DUP3 PUSH1 0x1F LT PUSH2 0x2C72 JUMPI DUP1 MLOAD PUSH1 0xFF NOT AND DUP4 DUP1 ADD OR DUP6 SSTORE PUSH2 0x2C1B JUMP JUMPDEST DUP3 DUP1 ADD PUSH1 0x1 ADD DUP6 SSTORE DUP3 ISZERO PUSH2 0x2C1B JUMPI SWAP2 DUP3 ADD JUMPDEST DUP3 DUP2 GT ISZERO PUSH2 0x2C1B JUMPI DUP3 MLOAD DUP3 SSTORE SWAP2 PUSH1 0x20 ADD SWAP2 SWAP1 PUSH1 0x1 ADD SWAP1 PUSH2 0x2C84 JUMP JUMPDEST JUMPDEST DUP1 DUP3 GT ISZERO PUSH2 0x2C27 JUMPI PUSH1 0x0 DUP2 SSTORE PUSH1 0x1 ADD PUSH2 0x2CA0 JUMP JUMPDEST PUSH1 0x0 DUP3 PUSH1 0x1F DUP4 ADD SLT PUSH2 0x2CC4 JUMPI DUP1 DUP2 REVERT JUMPDEST DUP2 CALLDATALOAD PUSH8 0xFFFFFFFFFFFFFFFF DUP1 DUP3 GT ISZERO PUSH2 0x2CDF JUMPI PUSH2 0x2CDF PUSH2 0x321E JUMP JUMPDEST PUSH1 0x40 MLOAD PUSH1 0x1F DUP4 ADD PUSH1 0x1F NOT AND DUP2 ADD PUSH1 0x20 ADD DUP3 DUP2 GT DUP3 DUP3 LT OR ISZERO PUSH2 0x2D03 JUMPI PUSH2 0x2D03 PUSH2 0x321E JUMP JUMPDEST PUSH1 0x40 MSTORE DUP3 DUP2 MSTORE DUP5 DUP4 ADD PUSH1 0x20 ADD DUP7 LT ISZERO PUSH2 0x2D1A JUMPI DUP4 DUP5 REVERT JUMPDEST DUP3 PUSH1 0x20 DUP7 ADD PUSH1 0x20 DUP4 ADD CALLDATACOPY SWAP2 DUP3 ADD PUSH1 0x20 ADD SWAP3 SWAP1 SWAP3 MSTORE SWAP4 SWAP3 POP POP POP JUMP JUMPDEST PUSH1 0x0 DUP1 PUSH1 0x40 DUP4 DUP6 SUB SLT ISZERO PUSH2 0x2D47 JUMPI DUP2 DUP3 REVERT JUMPDEST DUP3 CALLDATALOAD PUSH2 0x2D52 DUP2 PUSH2 0x3234 JUMP JUMPDEST SWAP5 PUSH1 0x20 SWAP4 SWAP1 SWAP4 ADD CALLDATALOAD SWAP4 POP POP POP JUMP JUMPDEST PUSH1 0x0 DUP1 PUSH1 0x0 PUSH1 0x60 DUP5 DUP7 SUB SLT ISZERO PUSH2 0x2D74 JUMPI DUP1 DUP2 REVERT JUMPDEST DUP4 CALLDATALOAD PUSH2 0x2D7F DUP2 PUSH2 0x3234 JUMP JUMPDEST SWAP6 PUSH1 0x20 DUP6 ADD CALLDATALOAD SWAP6 POP PUSH1 0x40 SWAP1 SWAP5 ADD CALLDATALOAD SWAP4 SWAP3 POP POP POP JUMP JUMPDEST PUSH1 0x0 PUSH1 0x20 DUP3 DUP5 SUB SLT ISZERO PUSH2 0x2DA5 JUMPI DUP1 DUP2 REVERT JUMPDEST DUP2 MLOAD PUSH1 0x1 PUSH1 0x1 PUSH1 0xE0 SHL SUB NOT DUP2 AND DUP2 EQ PUSH2 0x2DBC JUMPI DUP2 DUP3 REVERT JUMPDEST SWAP4 SWAP3 POP POP POP JUMP JUMPDEST PUSH1 0x0 PUSH1 0x20 DUP3 DUP5 SUB SLT ISZERO PUSH2 0x2DD4 JUMPI DUP1 DUP2 REVERT JUMPDEST POP CALLDATALOAD SWAP2 SWAP1 POP JUMP JUMPDEST PUSH1 0x0 DUP1 PUSH1 0x0 DUP1 PUSH1 0x80 DUP6 DUP8 SUB SLT ISZERO PUSH2 0x2DF0 JUMPI DUP1 DUP2 REVERT JUMPDEST DUP5 CALLDATALOAD SWAP4 POP PUSH1 0x20 DUP6 ADD CALLDATALOAD PUSH2 0x2E02 DUP2 PUSH2 0x3234 JUMP JUMPDEST SWAP3 POP PUSH1 0x40 DUP6 ADD CALLDATALOAD PUSH8 0xFFFFFFFFFFFFFFFF DUP2 GT ISZERO PUSH2 0x2E1D JUMPI DUP2 DUP3 REVERT JUMPDEST PUSH2 0x2E29 DUP8 DUP3 DUP9 ADD PUSH2 0x2CB4 JUMP JUMPDEST SWAP5 SWAP8 SWAP4 SWAP7 POP SWAP4 SWAP5 PUSH1 0x60 ADD CALLDATALOAD SWAP4 POP POP POP JUMP JUMPDEST PUSH1 0x0 DUP1 PUSH1 0x0 DUP1 PUSH1 0x80 DUP6 DUP8 SUB SLT ISZERO PUSH2 0x2E4F JUMPI DUP4 DUP5 REVERT JUMPDEST DUP5 CALLDATALOAD SWAP4 POP PUSH1 0x20 DUP6 ADD CALLDATALOAD PUSH2 0x2E61 DUP2 PUSH2 0x3234 JUMP JUMPDEST SWAP4 SWAP7 SWAP4 SWAP6 POP POP POP POP PUSH1 0x40 DUP3 ADD CALLDATALOAD SWAP2 PUSH1 0x60 ADD CALLDATALOAD SWAP1 JUMP JUMPDEST PUSH1 0x0 DUP1 PUSH1 0x40 DUP4 DUP6 SUB SLT ISZERO PUSH2 0x2E88 JUMPI DUP2 DUP3 REVERT JUMPDEST DUP3 CALLDATALOAD SWAP2 POP PUSH1 0x20 DUP4 ADD CALLDATALOAD DUP1 ISZERO ISZERO DUP2 EQ PUSH2 0x2E9E JUMPI DUP2 DUP3 REVERT JUMPDEST DUP1 SWAP2 POP POP SWAP3 POP SWAP3 SWAP1 POP JUMP JUMPDEST PUSH1 0x0 DUP1 PUSH1 0x40 DUP4 DUP6 SUB SLT ISZERO PUSH2 0x2EBB JUMPI DUP2 DUP3 REVERT JUMPDEST DUP3 CALLDATALOAD SWAP2 POP PUSH1 0x20 DUP4 ADD CALLDATALOAD PUSH8 0xFFFFFFFFFFFFFFFF DUP2 GT ISZERO PUSH2 0x2ED8 JUMPI DUP2 DUP3 REVERT JUMPDEST PUSH2 0x2EE4 DUP6 DUP3 DUP7 ADD PUSH2 0x2CB4 JUMP JUMPDEST SWAP2 POP POP SWAP3 POP SWAP3 SWAP1 POP JUMP JUMPDEST PUSH1 0x0 DUP1 PUSH1 0x0 PUSH1 0x60 DUP5 DUP7 SUB SLT ISZERO PUSH2 0x2F02 JUMPI DUP3 DUP4 REVERT JUMPDEST DUP4 CALLDATALOAD SWAP3 POP PUSH1 0x20 DUP5 ADD CALLDATALOAD SWAP2 POP PUSH1 0x40 DUP5 ADD CALLDATALOAD PUSH8 0xFFFFFFFFFFFFFFFF DUP2 GT ISZERO PUSH2 0x2F26 JUMPI DUP2 DUP3 REVERT JUMPDEST PUSH2 0x2F32 DUP7 DUP3 DUP8 ADD PUSH2 0x2CB4 JUMP JUMPDEST SWAP2 POP POP SWAP3 POP SWAP3 POP SWAP3 JUMP JUMPDEST PUSH1 0x0 DUP1 PUSH1 0x0 PUSH1 0x60 DUP5 DUP7 SUB SLT ISZERO PUSH2 0x2F50 JUMPI DUP3 DUP4 REVERT JUMPDEST POP POP DUP2 CALLDATALOAD SWAP4 PUSH1 0x20 DUP4 ADD CALLDATALOAD SWAP4 POP PUSH1 0x40 SWAP1 SWAP3 ADD CALLDATALOAD SWAP2 SWAP1 POP JUMP JUMPDEST PUSH1 0x0 DUP2 MLOAD DUP1 DUP5 MSTORE DUP2 JUMPDEST DUP2 DUP2 LT ISZERO PUSH2 0x2F8C JUMPI PUSH1 0x20 DUP2 DUP6 ADD DUP2 ADD MLOAD DUP7 DUP4 ADD DUP3 ADD MSTORE ADD PUSH2 0x2F70 JUMP JUMPDEST DUP2 DUP2 GT ISZERO PUSH2 0x2F9D JUMPI DUP3 PUSH1 0x20 DUP4 DUP8 ADD ADD MSTORE JUMPDEST POP PUSH1 0x1F ADD PUSH1 0x1F NOT AND SWAP3 SWAP1 SWAP3 ADD PUSH1 0x20 ADD SWAP3 SWAP2 POP POP JUMP JUMPDEST PUSH1 0x1 PUSH1 0x1 PUSH1 0xA0 SHL SUB SWAP2 SWAP1 SWAP2 AND DUP2 MSTORE PUSH1 0x20 ADD SWAP1 JUMP JUMPDEST PUSH1 0x1 PUSH1 0x1 PUSH1 0xA0 SHL SUB DUP6 DUP2 AND DUP3 MSTORE DUP5 AND PUSH1 0x20 DUP3 ADD MSTORE PUSH1 0x40 DUP2 ADD DUP4 SWAP1 MSTORE PUSH1 0x80 PUSH1 0x60 DUP3 ADD DUP2 SWAP1 MSTORE PUSH1 0x0 SWAP1 PUSH2 0x2FF9 SWAP1 DUP4 ADD DUP5 PUSH2 0x2F67 JUMP JUMPDEST SWAP7 SWAP6 POP POP POP POP POP POP JUMP JUMPDEST PUSH1 0x1 PUSH1 0x1 PUSH1 0xA0 SHL SUB DUP4 AND DUP2 MSTORE PUSH1 0x40 PUSH1 0x20 DUP3 ADD DUP2 SWAP1 MSTORE PUSH1 0x0 SWAP1 PUSH2 0x2B7A SWAP1 DUP4 ADD DUP5 PUSH2 0x2F67 JUMP JUMPDEST SWAP1 ISZERO ISZERO DUP2 MSTORE PUSH1 0x20 ADD SWAP1 JUMP JUMPDEST PUSH1 0x0 DUP4 DUP3 MSTORE PUSH1 0x40 PUSH1 0x20 DUP4 ADD MSTORE PUSH2 0x2B7A PUSH1 0x40 DUP4 ADD DUP5 PUSH2 0x2F67 JUMP JUMPDEST PUSH1 0x0 PUSH1 0x20 DUP3 MSTORE PUSH2 0x2DBC PUSH1 0x20 DUP4 ADD DUP5 PUSH2 0x2F67 JUMP JUMPDEST PUSH1 0x20 DUP1 DUP3 MSTORE PUSH1 0x13 SWAP1 DUP3 ADD MSTORE PUSH19 0x1393D508125354131153515395115108165155 PUSH1 0x6A SHL PUSH1 0x40 DUP3 ADD MSTORE PUSH1 0x60 ADD SWAP1 JUMP JUMPDEST PUSH1 0x20 DUP1 DUP3 MSTORE PUSH1 0x24 SWAP1 DUP3 ADD MSTORE PUSH32 0x50524943452050524F504F53414C204D55535420424520424947474552205448 PUSH1 0x40 DUP3 ADD MSTORE PUSH4 0x414E203 PUSH1 0xE4 SHL PUSH1 0x60 DUP3 ADD MSTORE PUSH1 0x80 ADD SWAP1 JUMP JUMPDEST SWAP1 DUP2 MSTORE PUSH1 0x20 ADD SWAP1 JUMP JUMPDEST PUSH1 0x0 DUP4 DUP3 MSTORE PUSH1 0x20 PUSH1 0x40 DUP2 DUP5 ADD MSTORE DUP2 DUP5 SLOAD DUP4 PUSH1 0x2 DUP3 DIV SWAP1 POP PUSH1 0x1 DUP1 DUP4 AND DUP1 PUSH2 0x3100 JUMPI PUSH1 0x7F DUP4 AND SWAP3 POP JUMPDEST DUP6 DUP4 LT DUP2 EQ ISZERO PUSH2 0x311E JUMPI PUSH4 0x4E487B71 PUSH1 0xE0 SHL DUP8 MSTORE PUSH1 0x22 PUSH1 0x4 MSTORE PUSH1 0x24 DUP8 REVERT JUMPDEST PUSH2 0x312B DUP4 PUSH1 0x40 DUP11 ADD PUSH2 0x30CF JUMP JUMPDEST DUP2 DUP1 ISZERO PUSH2 0x313F JUMPI PUSH1 0x1 DUP2 EQ PUSH2 0x3150 JUMPI PUSH2 0x317A JUMP JUMPDEST PUSH1 0xFF NOT DUP7 AND DUP3 MSTORE DUP8 DUP3 ADD SWAP7 POP PUSH2 0x317A JUMP JUMPDEST PUSH2 0x3159 DUP12 PUSH2 0x3198 JUMP JUMPDEST DUP10 JUMPDEST DUP7 DUP2 LT ISZERO PUSH2 0x3174 JUMPI DUP2 SLOAD DUP5 DUP3 ADD MSTORE SWAP1 DUP6 ADD SWAP1 DUP10 ADD PUSH2 0x315B JUMP JUMPDEST DUP4 ADD SWAP8 POP POP JUMPDEST POP SWAP5 SWAP11 SWAP10 POP POP POP POP POP POP POP POP POP POP JUMP JUMPDEST SWAP2 DUP3 MSTORE PUSH1 0x20 DUP3 ADD MSTORE PUSH1 0x40 ADD SWAP1 JUMP JUMPDEST PUSH1 0x0 SWAP1 DUP2 MSTORE PUSH1 0x20 SWAP1 KECCAK256 SWAP1 JUMP JUMPDEST PUSH1 0x0 DUP3 NOT DUP3 GT ISZERO PUSH2 0x31B7 JUMPI PUSH2 0x31B7 PUSH2 0x3208 JUMP JUMPDEST POP ADD SWAP1 JUMP JUMPDEST PUSH1 0x0 DUP3 DUP3 LT ISZERO PUSH2 0x31CE JUMPI PUSH2 0x31CE PUSH2 0x3208 JUMP JUMPDEST POP SUB SWAP1 JUMP JUMPDEST PUSH1 0x2 DUP2 DIV PUSH1 0x1 DUP3 AND DUP1 PUSH2 0x31E7 JUMPI PUSH1 0x7F DUP3 AND SWAP2 POP JUMPDEST PUSH1 0x20 DUP3 LT DUP2 EQ ISZERO PUSH2 0xF87 JUMPI PUSH4 0x4E487B71 PUSH1 0xE0 SHL PUSH1 0x0 MSTORE PUSH1 0x22 PUSH1 0x4 MSTORE PUSH1 0x24 PUSH1 0x0 REVERT JUMPDEST PUSH4 0x4E487B71 PUSH1 0xE0 SHL PUSH1 0x0 MSTORE PUSH1 0x11 PUSH1 0x4 MSTORE PUSH1 0x24 PUSH1 0x0 REVERT JUMPDEST PUSH4 0x4E487B71 PUSH1 0xE0 SHL PUSH1 0x0 MSTORE PUSH1 0x41 PUSH1 0x4 MSTORE PUSH1 0x24 PUSH1 0x0 REVERT JUMPDEST PUSH1 0x1 PUSH1 0x1 PUSH1 0xA0 SHL SUB DUP2 AND DUP2 EQ PUSH2 0x3249 JUMPI PUSH1 0x0 DUP1 REVERT JUMPDEST POP JUMP INVALID DUP11 0xE CREATE2 0xC7 0xC4 0xEB 0xFB SDIV SMOD 0xF9 0x48 NUMBER 0xDC 0xC1 0x4E 0xC4 0xB1 0xD4 DUP2 PUSH13 0xAF28A48931136BEEC636B3B2A2 PUSH5 0x6970667358 0x22 SLT KECCAK256 DUP10 0xDC ISZERO 0xD9 DUP5 EXP 0xF6 PUSH24 0xC4B15E4030100AFF7D8E0A7783BFC34BA84518D3EA9ACBD0 PUSH5 0x736F6C6343 STOP ADDMOD STOP STOP CALLER "
		},
		"gasEstimates": {
			"creation": {
				"codeDepositCost": "2592400",
				"executionCost": "infinite",
				"totalCost": "infinite"
			},
			"external": {
				"INSURANCE_DESCRIPTION()": "infinite",
				"LAST_SERVICE_DESCRIPTION()": "infinite",
				"LAST_SERVICE_MILEAGE()": "1138",
				"MILEAGE_RECORD()": "1161",
				"MILEAGE_RECORD_DESCRIPTION()": "infinite",
				"acceptHelperService(uint256,bool)": "infinite",
				"active()": "1104",
				"currentDebt()": "1074",
				"currentGovDebt()": "1074",
				"descriptionEndLife()": "infinite",
				"genesisData()": "infinite",
				"government()": "1138",
				"helper()": "1159",
				"inTransProcess()": "1140",
				"insured()": "1173",
				"legal()": "1168",
				"legalOwner()": "1138",
				"manufacturer()": "1203",
				"mint(address,uint256)": "infinite",
				"name()": "infinite",
				"ownerOf(uint256)": "infinite",
				"payForThePurchase(address,uint256)": "infinite",
				"payToTheGovernment(address,uint256,uint256)": "infinite",
				"possiblelegalOwner()": "1159",
				"priceProposal()": "1141",
				"reportAsStolen(uint256,string)": "infinite",
				"reportEndLifeCycle(uint256,string)": "infinite",
				"requestChangeStolenStatus(uint256)": "infinite",
				"requestOwnerright(uint256)": "infinite",
				"setAgreedPrice(uint256,address,uint256,uint256)": "infinite",
				"setCostForTheTransaction(uint256,uint256,uint256)": "infinite",
				"setHelper(uint256,address,string,uint256)": "infinite",
				"setInsuranceDetails(uint256,uint256,string)": "infinite",
				"setMaintenanceService(uint256,uint256,string)": "infinite",
				"stolen()": "1103",
				"symbol()": "infinite",
				"transactionGovCost()": "1118"
			},
			"internal": {
				"completeTransaction(uint256,uint256)": "infinite",
				"requirementTypeTransaction(uint256,uint256)": "infinite"
			}
		},
		"methodIdentifiers": {
			"INSURANCE_DESCRIPTION()": "502beded",
			"LAST_SERVICE_DESCRIPTION()": "a94ac1d9",
			"LAST_SERVICE_MILEAGE()": "f6be4cba",
			"MILEAGE_RECORD()": "aeade3a6",
			"MILEAGE_RECORD_DESCRIPTION()": "5a69c1db",
			"acceptHelperService(uint256,bool)": "58892d10",
			"active()": "02fb0c5e",
			"currentDebt()": "759076e5",
			"currentGovDebt()": "46a0e3c8",
			"descriptionEndLife()": "84a60ff4",
			"genesisData()": "f67c76b5",
			"government()": "2672f526",
			"helper()": "63b0e66a",
			"inTransProcess()": "89833f5b",
			"insured()": "eebb1363",
			"legal()": "e377ac31",
			"legalOwner()": "7ac0133d",
			"manufacturer()": "74754282",
			"mint(address,uint256)": "40c10f19",
			"name()": "06fdde03",
			"ownerOf(uint256)": "6352211e",
			"payForThePurchase(address,uint256)": "c428fc32",
			"payToTheGovernment(address,uint256,uint256)": "0fe70229",
			"possiblelegalOwner()": "9c210ca8",
			"priceProposal()": "14a3a3d2",
			"reportAsStolen(uint256,string)": "968b106a",
			"reportEndLifeCycle(uint256,string)": "c89e54c9",
			"requestChangeStolenStatus(uint256)": "44c6ae60",
			"requestOwnerright(uint256)": "f02ad03b",
			"setAgreedPrice(uint256,address,uint256,uint256)": "f5d13250",
			"setCostForTheTransaction(uint256,uint256,uint256)": "6e12a61f",
			"setHelper(uint256,address,string,uint256)": "feea6cf6",
			"setInsuranceDetails(uint256,uint256,string)": "bdf8e426",
			"setMaintenanceService(uint256,uint256,string)": "46155afa",
			"stolen()": "14f515ad",
			"symbol()": "95d89b41",
			"transactionGovCost()": "57c81e98"
		}
	},
	"abi": [
		{
			"inputs": [
				{
					"internalType": "string",
					"name": "_name",
					"type": "string"
				},
				{
					"internalType": "string",
					"name": "_symbol",
					"type": "string"
				},
				{
					"internalType": "string",
					"name": "_data",
					"type": "string"
				}
			],
			"stateMutability": "nonpayable",
			"type": "constructor"
		},
		{
			"anonymous": false,
			"inputs": [
				{
					"indexed": true,
					"internalType": "address",
					"name": "_owner",
					"type": "address"
				},
				{
					"indexed": true,
					"internalType": "address",
					"name": "_approved",
					"type": "address"
				},
				{
					"indexed": true,
					"internalType": "uint256",
					"name": "_tokenId",
					"type": "uint256"
				}
			],
			"name": "Approval",
			"type": "event"
		},
		{
			"anonymous": false,
			"inputs": [
				{
					"indexed": true,
					"internalType": "address",
					"name": "previousOwner",
					"type": "address"
				},
				{
					"indexed": true,
					"internalType": "address",
					"name": "newOwner",
					"type": "address"
				}
			],
			"name": "OwnershipTransferred",
			"type": "event"
		},
		{
			"anonymous": false,
			"inputs": [
				{
					"indexed": true,
					"internalType": "address",
					"name": "_from",
					"type": "address"
				},
				{
					"indexed": true,
					"internalType": "address",
					"name": "_to",
					"type": "address"
				},
				{
					"indexed": true,
					"internalType": "uint256",
					"name": "_tokenId",
					"type": "uint256"
				}
			],
			"name": "Transfer",
			"type": "event"
		},
		{
			"anonymous": false,
			"inputs": [
				{
					"indexed": true,
					"internalType": "address",
					"name": "helper",
					"type": "address"
				},
				{
					"indexed": false,
					"internalType": "string",
					"name": "about",
					"type": "string"
				}
			],
			"name": "historicHelperUsers",
			"type": "event"
		},
		{
			"anonymous": false,
			"inputs": [
				{
					"indexed": true,
					"internalType": "address",
					"name": "helper",
					"type": "address"
				},
				{
					"indexed": false,
					"internalType": "uint256",
					"name": "mileage",
					"type": "uint256"
				},
				{
					"indexed": false,
					"internalType": "string",
					"name": "description",
					"type": "string"
				}
			],
			"name": "historicInsuranceServices",
			"type": "event"
		},
		{
			"anonymous": false,
			"inputs": [
				{
					"indexed": true,
					"internalType": "address",
					"name": "emiter",
					"type": "address"
				},
				{
					"indexed": false,
					"internalType": "uint256",
					"name": "mileage",
					"type": "uint256"
				},
				{
					"indexed": false,
					"internalType": "string",
					"name": "description",
					"type": "string"
				}
			],
			"name": "historicMileageRecord",
			"type": "event"
		},
		{
			"anonymous": false,
			"inputs": [
				{
					"indexed": true,
					"internalType": "address",
					"name": "oldOwner",
					"type": "address"
				},
				{
					"indexed": true,
					"internalType": "address",
					"name": "newOwner",
					"type": "address"
				},
				{
					"indexed": false,
					"internalType": "uint256",
					"name": "transactionCost",
					"type": "uint256"
				},
				{
					"indexed": false,
					"internalType": "uint256",
					"name": "_tokenId",
					"type": "uint256"
				}
			],
			"name": "historicOwnerrights",
			"type": "event"
		},
		{
			"anonymous": false,
			"inputs": [
				{
					"indexed": true,
					"internalType": "address",
					"name": "helper",
					"type": "address"
				},
				{
					"indexed": false,
					"internalType": "uint256",
					"name": "mileage",
					"type": "uint256"
				},
				{
					"indexed": false,
					"internalType": "string",
					"name": "description",
					"type": "string"
				}
			],
			"name": "historicServices",
			"type": "event"
		},
		{
			"anonymous": false,
			"inputs": [
				{
					"indexed": true,
					"internalType": "address",
					"name": "executor",
					"type": "address"
				},
				{
					"indexed": false,
					"internalType": "uint256",
					"name": "cost",
					"type": "uint256"
				},
				{
					"indexed": false,
					"internalType": "string",
					"name": "data",
					"type": "string"
				}
			],
			"name": "historicTransactions",
			"type": "event"
		},
		{
			"anonymous": false,
			"inputs": [
				{
					"indexed": false,
					"internalType": "address",
					"name": "owner",
					"type": "address"
				},
				{
					"indexed": false,
					"internalType": "string",
					"name": "description",
					"type": "string"
				}
			],
			"name": "stolenLife",
			"type": "event"
		},
		{
			"inputs": [],
			"name": "INSURANCE_DESCRIPTION",
			"outputs": [
				{
					"internalType": "string",
					"name": "",
					"type": "string"
				}
			],
			"stateMutability": "view",
			"type": "function"
		},
		{
			"inputs": [],
			"name": "LAST_SERVICE_DESCRIPTION",
			"outputs": [
				{
					"internalType": "string",
					"name": "",
					"type": "string"
				}
			],
			"stateMutability": "view",
			"type": "function"
		},
		{
			"inputs": [],
			"name": "LAST_SERVICE_MILEAGE",
			"outputs": [
				{
					"internalType": "uint256",
					"name": "",
					"type": "uint256"
				}
			],
			"stateMutability": "view",
			"type": "function"
		},
		{
			"inputs": [],
			"name": "MILEAGE_RECORD",
			"outputs": [
				{
					"internalType": "uint256",
					"name": "",
					"type": "uint256"
				}
			],
			"stateMutability": "view",
			"type": "function"
		},
		{
			"inputs": [],
			"name": "MILEAGE_RECORD_DESCRIPTION",
			"outputs": [
				{
					"internalType": "string",
					"name": "",
					"type": "string"
				}
			],
			"stateMutability": "view",
			"type": "function"
		},
		{
			"inputs": [
				{
					"internalType": "uint256",
					"name": "_tokenId",
					"type": "uint256"
				},
				{
					"internalType": "bool",
					"name": "_accept",
					"type": "bool"
				}
			],
			"name": "acceptHelperService",
			"outputs": [],
			"stateMutability": "nonpayable",
			"type": "function"
		},
		{
			"inputs": [],
			"name": "active",
			"outputs": [
				{
					"internalType": "bool",
					"name": "",
					"type": "bool"
				}
			],
			"stateMutability": "view",
			"type": "function"
		},
		{
			"inputs": [],
			"name": "currentDebt",
			"outputs": [
				{
					"internalType": "uint256",
					"name": "",
					"type": "uint256"
				}
			],
			"stateMutability": "view",
			"type": "function"
		},
		{
			"inputs": [],
			"name": "currentGovDebt",
			"outputs": [
				{
					"internalType": "uint256",
					"name": "",
					"type": "uint256"
				}
			],
			"stateMutability": "view",
			"type": "function"
		},
		{
			"inputs": [],
			"name": "descriptionEndLife",
			"outputs": [
				{
					"internalType": "string",
					"name": "",
					"type": "string"
				}
			],
			"stateMutability": "view",
			"type": "function"
		},
		{
			"inputs": [],
			"name": "genesisData",
			"outputs": [
				{
					"internalType": "string",
					"name": "",
					"type": "string"
				}
			],
			"stateMutability": "view",
			"type": "function"
		},
		{
			"inputs": [],
			"name": "government",
			"outputs": [
				{
					"internalType": "address",
					"name": "",
					"type": "address"
				}
			],
			"stateMutability": "view",
			"type": "function"
		},
		{
			"inputs": [],
			"name": "helper",
			"outputs": [
				{
					"internalType": "address",
					"name": "",
					"type": "address"
				}
			],
			"stateMutability": "view",
			"type": "function"
		},
		{
			"inputs": [],
			"name": "inTransProcess",
			"outputs": [
				{
					"internalType": "uint256",
					"name": "",
					"type": "uint256"
				}
			],
			"stateMutability": "view",
			"type": "function"
		},
		{
			"inputs": [],
			"name": "insured",
			"outputs": [
				{
					"internalType": "bool",
					"name": "",
					"type": "bool"
				}
			],
			"stateMutability": "view",
			"type": "function"
		},
		{
			"inputs": [],
			"name": "legal",
			"outputs": [
				{
					"internalType": "bool",
					"name": "",
					"type": "bool"
				}
			],
			"stateMutability": "view",
			"type": "function"
		},
		{
			"inputs": [],
			"name": "legalOwner",
			"outputs": [
				{
					"internalType": "address",
					"name": "",
					"type": "address"
				}
			],
			"stateMutability": "view",
			"type": "function"
		},
		{
			"inputs": [],
			"name": "manufacturer",
			"outputs": [
				{
					"internalType": "address",
					"name": "",
					"type": "address"
				}
			],
			"stateMutability": "view",
			"type": "function"
		},
		{
			"inputs": [
				{
					"internalType": "address",
					"name": "_government",
					"type": "address"
				},
				{
					"internalType": "uint256",
					"name": "_tokenId",
					"type": "uint256"
				}
			],
			"name": "mint",
			"outputs": [],
			"stateMutability": "nonpayable",
			"type": "function"
		},
		{
			"inputs": [],
			"name": "name",
			"outputs": [
				{
					"internalType": "string",
					"name": "_name",
					"type": "string"
				}
			],
			"stateMutability": "view",
			"type": "function"
		},
		{
			"inputs": [
				{
					"internalType": "uint256",
					"name": "_tokenId",
					"type": "uint256"
				}
			],
			"name": "ownerOf",
			"outputs": [
				{
					"internalType": "address",
					"name": "_owner",
					"type": "address"
				}
			],
			"stateMutability": "view",
			"type": "function"
		},
		{
			"inputs": [
				{
					"internalType": "address payable",
					"name": "_owner",
					"type": "address"
				},
				{
					"internalType": "uint256",
					"name": "_tokenId",
					"type": "uint256"
				}
			],
			"name": "payForThePurchase",
			"outputs": [],
			"stateMutability": "payable",
			"type": "function"
		},
		{
			"inputs": [
				{
					"internalType": "address payable",
					"name": "_government",
					"type": "address"
				},
				{
					"internalType": "uint256",
					"name": "_tokenId",
					"type": "uint256"
				},
				{
					"internalType": "uint256",
					"name": "_transactionType",
					"type": "uint256"
				}
			],
			"name": "payToTheGovernment",
			"outputs": [],
			"stateMutability": "payable",
			"type": "function"
		},
		{
			"inputs": [],
			"name": "possiblelegalOwner",
			"outputs": [
				{
					"internalType": "address",
					"name": "",
					"type": "address"
				}
			],
			"stateMutability": "view",
			"type": "function"
		},
		{
			"inputs": [],
			"name": "priceProposal",
			"outputs": [
				{
					"internalType": "uint256",
					"name": "",
					"type": "uint256"
				}
			],
			"stateMutability": "view",
			"type": "function"
		},
		{
			"inputs": [
				{
					"internalType": "uint256",
					"name": "_tokenId",
					"type": "uint256"
				},
				{
					"internalType": "string",
					"name": "_description",
					"type": "string"
				}
			],
			"name": "reportAsStolen",
			"outputs": [],
			"stateMutability": "nonpayable",
			"type": "function"
		},
		{
			"inputs": [
				{
					"internalType": "uint256",
					"name": "_tokenId",
					"type": "uint256"
				},
				{
					"internalType": "string",
					"name": "_description",
					"type": "string"
				}
			],
			"name": "reportEndLifeCycle",
			"outputs": [],
			"stateMutability": "nonpayable",
			"type": "function"
		},
		{
			"inputs": [
				{
					"internalType": "uint256",
					"name": "_tokenId",
					"type": "uint256"
				}
			],
			"name": "requestChangeStolenStatus",
			"outputs": [],
			"stateMutability": "nonpayable",
			"type": "function"
		},
		{
			"inputs": [
				{
					"internalType": "uint256",
					"name": "_tokenId",
					"type": "uint256"
				}
			],
			"name": "requestOwnerright",
			"outputs": [],
			"stateMutability": "nonpayable",
			"type": "function"
		},
		{
			"inputs": [
				{
					"internalType": "uint256",
					"name": "_priceProposal",
					"type": "uint256"
				},
				{
					"internalType": "address",
					"name": "_possiblelegalOwner",
					"type": "address"
				},
				{
					"internalType": "uint256",
					"name": "_tokenId",
					"type": "uint256"
				},
				{
					"internalType": "uint256",
					"name": "_transactionType",
					"type": "uint256"
				}
			],
			"name": "setAgreedPrice",
			"outputs": [],
			"stateMutability": "nonpayable",
			"type": "function"
		},
		{
			"inputs": [
				{
					"internalType": "uint256",
					"name": "_transactionCost",
					"type": "uint256"
				},
				{
					"internalType": "uint256",
					"name": "_tokenId",
					"type": "uint256"
				},
				{
					"internalType": "uint256",
					"name": "_transactionType",
					"type": "uint256"
				}
			],
			"name": "setCostForTheTransaction",
			"outputs": [],
			"stateMutability": "nonpayable",
			"type": "function"
		},
		{
			"inputs": [
				{
					"internalType": "uint256",
					"name": "_tokenId",
					"type": "uint256"
				},
				{
					"internalType": "address",
					"name": "_helper",
					"type": "address"
				},
				{
					"internalType": "string",
					"name": "_about",
					"type": "string"
				},
				{
					"internalType": "uint256",
					"name": "_typeHelper",
					"type": "uint256"
				}
			],
			"name": "setHelper",
			"outputs": [],
			"stateMutability": "nonpayable",
			"type": "function"
		},
		{
			"inputs": [
				{
					"internalType": "uint256",
					"name": "_tokenId",
					"type": "uint256"
				},
				{
					"internalType": "uint256",
					"name": "_mileage",
					"type": "uint256"
				},
				{
					"internalType": "string",
					"name": "_description",
					"type": "string"
				}
			],
			"name": "setInsuranceDetails",
			"outputs": [],
			"stateMutability": "nonpayable",
			"type": "function"
		},
		{
			"inputs": [
				{
					"internalType": "uint256",
					"name": "_tokenId",
					"type": "uint256"
				},
				{
					"internalType": "uint256",
					"name": "_mileage",
					"type": "uint256"
				},
				{
					"internalType": "string",
					"name": "_description",
					"type": "string"
				}
			],
			"name": "setMaintenanceService",
			"outputs": [],
			"stateMutability": "nonpayable",
			"type": "function"
		},
		{
			"inputs": [],
			"name": "stolen",
			"outputs": [
				{
					"internalType": "bool",
					"name": "",
					"type": "bool"
				}
			],
			"stateMutability": "view",
			"type": "function"
		},
		{
			"inputs": [],
			"name": "symbol",
			"outputs": [
				{
					"internalType": "string",
					"name": "_symbol",
					"type": "string"
				}
			],
			"stateMutability": "view",
			"type": "function"
		},
		{
			"inputs": [],
			"name": "transactionGovCost",
			"outputs": [
				{
					"internalType": "uint256",
					"name": "",
					"type": "uint256"
				}
			],
			"stateMutability": "view",
			"type": "function"
		}
	]
}